{
  "_format": "hh-sol-artifact-1",
  "contractName": "XPrint",
  "sourceName": "contracts/Xprint.sol",
  "abi": [
    {
      "inputs": [
        {
          "internalType": "address",
          "name": "initialOwner",
          "type": "address"
        }
      ],
      "stateMutability": "nonpayable",
      "type": "constructor"
    },
    {
      "inputs": [
        {
          "internalType": "address",
          "name": "target",
          "type": "address"
        }
      ],
      "name": "AddressEmptyCode",
      "type": "error"
    },
    {
      "inputs": [
        {
          "internalType": "address",
          "name": "account",
          "type": "address"
        }
      ],
      "name": "AddressInsufficientBalance",
      "type": "error"
    },
    {
      "inputs": [],
      "name": "FailedInnerCall",
      "type": "error"
    },
    {
      "inputs": [],
      "name": "InsufficientAmount",
      "type": "error"
    },
    {
      "inputs": [],
      "name": "InvalidAddress",
      "type": "error"
    },
    {
      "inputs": [
        {
          "internalType": "address",
          "name": "owner",
          "type": "address"
        }
      ],
      "name": "OwnableInvalidOwner",
      "type": "error"
    },
    {
      "inputs": [
        {
          "internalType": "address",
          "name": "account",
          "type": "address"
        }
      ],
      "name": "OwnableUnauthorizedAccount",
      "type": "error"
    },
    {
      "inputs": [
        {
          "internalType": "address",
          "name": "token",
          "type": "address"
        }
      ],
      "name": "SafeERC20FailedOperation",
      "type": "error"
    },
    {
      "inputs": [],
      "name": "ZeroAddress",
      "type": "error"
    },
    {
      "inputs": [],
      "name": "ZeroAmount",
      "type": "error"
    },
    {
      "anonymous": false,
      "inputs": [
        {
          "indexed": true,
          "internalType": "address",
          "name": "owner",
          "type": "address"
        },
        {
          "indexed": true,
          "internalType": "bytes32",
          "name": "printHash",
          "type": "bytes32"
        },
        {
          "indexed": true,
          "internalType": "bytes32",
          "name": "printerHash",
          "type": "bytes32"
        },
        {
          "indexed": false,
          "internalType": "string",
          "name": "docHash",
          "type": "string"
        }
      ],
      "name": "JobIssued",
      "type": "event"
    },
    {
      "anonymous": false,
      "inputs": [
        {
          "indexed": true,
          "internalType": "address",
          "name": "previousOwner",
          "type": "address"
        },
        {
          "indexed": true,
          "internalType": "address",
          "name": "newOwner",
          "type": "address"
        }
      ],
      "name": "OwnershipTransferred",
      "type": "event"
    },
    {
      "anonymous": false,
      "inputs": [
        {
          "indexed": true,
          "internalType": "bytes32",
          "name": "printHash",
          "type": "bytes32"
        },
        {
          "indexed": true,
          "internalType": "address",
          "name": "owner",
          "type": "address"
        },
        {
          "indexed": false,
          "internalType": "uint256",
          "name": "amount",
          "type": "uint256"
        }
      ],
      "name": "PaymentLocked",
      "type": "event"
    },
    {
      "anonymous": false,
      "inputs": [
        {
          "indexed": true,
          "internalType": "bytes32",
          "name": "printHash",
          "type": "bytes32"
        },
        {
          "indexed": true,
          "internalType": "bytes32",
          "name": "printerHash",
          "type": "bytes32"
        }
      ],
      "name": "PrintCancelled",
      "type": "event"
    },
    {
      "anonymous": false,
      "inputs": [
        {
          "indexed": true,
          "internalType": "address",
          "name": "owner",
          "type": "address"
        },
        {
          "indexed": true,
          "internalType": "bytes32",
          "name": "printerHash",
          "type": "bytes32"
        },
        {
          "indexed": false,
          "internalType": "string",
          "name": "cid",
          "type": "string"
        }
      ],
      "name": "PrinterCreated",
      "type": "event"
    },
    {
      "anonymous": false,
      "inputs": [
        {
          "indexed": true,
          "internalType": "address",
          "name": "owner",
          "type": "address"
        },
        {
          "indexed": true,
          "internalType": "bytes32",
          "name": "printerHash",
          "type": "bytes32"
        }
      ],
      "name": "PrinterRemoved",
      "type": "event"
    },
    {
      "anonymous": false,
      "inputs": [
        {
          "indexed": true,
          "internalType": "bytes32",
          "name": "printHash",
          "type": "bytes32"
        },
        {
          "indexed": true,
          "internalType": "address",
          "name": "owner",
          "type": "address"
        },
        {
          "indexed": false,
          "internalType": "uint256",
          "name": "amount",
          "type": "uint256"
        }
      ],
      "name": "RefundRequested",
      "type": "event"
    },
    {
      "anonymous": false,
      "inputs": [
        {
          "indexed": true,
          "internalType": "address",
          "name": "owner",
          "type": "address"
        },
        {
          "indexed": true,
          "internalType": "bytes32",
          "name": "printHash",
          "type": "bytes32"
        },
        {
          "indexed": true,
          "internalType": "bytes32",
          "name": "printerHash",
          "type": "bytes32"
        }
      ],
      "name": "RequestPrintCancel",
      "type": "event"
    },
    {
      "inputs": [
        {
          "internalType": "bytes32",
          "name": "printHash",
          "type": "bytes32"
        }
      ],
      "name": "getJobStatus",
      "outputs": [
        {
          "internalType": "enum JobManager.JobStatus",
          "name": "",
          "type": "uint8"
        }
      ],
      "stateMutability": "view",
      "type": "function"
    },
    {
      "inputs": [],
      "name": "getPaymentToken",
      "outputs": [
        {
          "internalType": "address",
          "name": "",
          "type": "address"
        }
      ],
      "stateMutability": "view",
      "type": "function"
    },
    {
      "inputs": [
        {
          "internalType": "bytes32",
          "name": "printHash",
          "type": "bytes32"
        }
      ],
      "name": "getPrintBalance",
      "outputs": [
        {
          "internalType": "uint256",
          "name": "",
          "type": "uint256"
        }
      ],
      "stateMutability": "view",
      "type": "function"
    },
    {
      "inputs": [
        {
          "internalType": "bytes32",
          "name": "hash",
          "type": "bytes32"
        }
      ],
      "name": "getPrintHashOwner",
      "outputs": [
        {
          "internalType": "address",
          "name": "",
          "type": "address"
        }
      ],
      "stateMutability": "view",
      "type": "function"
    },
    {
      "inputs": [
        {
          "internalType": "bytes32",
          "name": "hash",
          "type": "bytes32"
        }
      ],
      "name": "getPrintHashPrinter",
      "outputs": [
        {
          "internalType": "bytes32",
          "name": "",
          "type": "bytes32"
        }
      ],
      "stateMutability": "view",
      "type": "function"
    },
    {
      "inputs": [
        {
          "internalType": "bytes32",
          "name": "printerHash",
          "type": "bytes32"
        }
      ],
      "name": "getPrinterOwner",
      "outputs": [
        {
          "internalType": "address",
          "name": "",
          "type": "address"
        }
      ],
      "stateMutability": "view",
      "type": "function"
    },
    {
      "inputs": [
        {
          "internalType": "bytes",
          "name": "printerDetails",
          "type": "bytes"
        }
      ],
      "name": "getPrinterhash",
      "outputs": [
        {
          "internalType": "bytes32",
          "name": "",
          "type": "bytes32"
        }
      ],
      "stateMutability": "pure",
      "type": "function"
    },
    {
      "inputs": [
        {
          "internalType": "bytes32",
          "name": "printHash",
          "type": "bytes32"
        }
      ],
      "name": "isPrintJob",
      "outputs": [
        {
          "internalType": "bool",
          "name": "",
          "type": "bool"
        }
      ],
      "stateMutability": "view",
      "type": "function"
    },
    {
      "inputs": [
        {
          "internalType": "bytes32",
          "name": "printHash",
          "type": "bytes32"
        }
      ],
      "name": "isPrinted",
      "outputs": [
        {
          "internalType": "bool",
          "name": "",
          "type": "bool"
        }
      ],
      "stateMutability": "view",
      "type": "function"
    },
    {
      "inputs": [
        {
          "internalType": "bytes32",
          "name": "printerHash",
          "type": "bytes32"
        }
      ],
      "name": "isPrinter",
      "outputs": [
        {
          "internalType": "bool",
          "name": "",
          "type": "bool"
        }
      ],
      "stateMutability": "view",
      "type": "function"
    },
    {
      "inputs": [
        {
          "internalType": "bytes32",
          "name": "printerHash",
          "type": "bytes32"
        },
        {
          "internalType": "address",
          "name": "owner",
          "type": "address"
        },
        {
          "internalType": "uint256",
          "name": "amount",
          "type": "uint256"
        },
        {
          "internalType": "string",
          "name": "docCID",
          "type": "string"
        }
      ],
      "name": "issuePrint",
      "outputs": [
        {
          "internalType": "bytes32",
          "name": "",
          "type": "bytes32"
        }
      ],
      "stateMutability": "nonpayable",
      "type": "function"
    },
    {
      "inputs": [
        {
          "internalType": "bytes32",
          "name": "printHash",
          "type": "bytes32"
        },
        {
          "internalType": "bytes32",
          "name": "printerHash",
          "type": "bytes32"
        },
        {
          "internalType": "uint256",
          "name": "amount",
          "type": "uint256"
        }
      ],
      "name": "markPrinted",
      "outputs": [],
      "stateMutability": "nonpayable",
      "type": "function"
    },
    {
      "inputs": [],
      "name": "owner",
      "outputs": [
        {
          "internalType": "address",
          "name": "",
          "type": "address"
        }
      ],
      "stateMutability": "view",
      "type": "function"
    },
    {
      "inputs": [],
      "name": "printPoint",
      "outputs": [
        {
          "internalType": "uint256",
          "name": "",
          "type": "uint256"
        }
      ],
      "stateMutability": "view",
      "type": "function"
    },
    {
      "inputs": [],
      "name": "redeemPeriod",
      "outputs": [
        {
          "internalType": "uint256",
          "name": "",
          "type": "uint256"
        }
      ],
      "stateMutability": "view",
      "type": "function"
    },
    {
      "inputs": [],
      "name": "redeemToken",
      "outputs": [
        {
          "internalType": "address",
          "name": "",
          "type": "address"
        }
      ],
      "stateMutability": "view",
      "type": "function"
    },
    {
      "inputs": [
        {
          "internalType": "bytes32",
          "name": "printerHash",
          "type": "bytes32"
        },
        {
          "internalType": "address",
          "name": "owner",
          "type": "address"
        },
        {
          "internalType": "string",
          "name": "cid",
          "type": "string"
        }
      ],
      "name": "registerPrinter",
      "outputs": [],
      "stateMutability": "nonpayable",
      "type": "function"
    },
    {
      "inputs": [],
      "name": "renounceOwnership",
      "outputs": [],
      "stateMutability": "nonpayable",
      "type": "function"
    },
    {
      "inputs": [
        {
          "internalType": "address",
          "name": "token_",
          "type": "address"
        }
      ],
      "name": "setPaymentToken",
      "outputs": [],
      "stateMutability": "nonpayable",
      "type": "function"
    },
    {
      "inputs": [
        {
          "internalType": "uint256",
          "name": "point",
          "type": "uint256"
        }
      ],
      "name": "setPrintPoint",
      "outputs": [],
      "stateMutability": "nonpayable",
      "type": "function"
    },
    {
      "inputs": [
        {
          "internalType": "address",
          "name": "token",
          "type": "address"
        }
      ],
      "name": "setRedeemToken",
      "outputs": [],
      "stateMutability": "nonpayable",
      "type": "function"
    },
    {
      "inputs": [
        {
          "internalType": "uint256",
          "name": "value",
          "type": "uint256"
        }
      ],
      "name": "setValuePerPoint",
      "outputs": [],
      "stateMutability": "nonpayable",
      "type": "function"
    },
    {
      "inputs": [
        {
          "internalType": "address",
          "name": "newOwner",
          "type": "address"
        }
      ],
      "name": "transferOwnership",
      "outputs": [],
      "stateMutability": "nonpayable",
      "type": "function"
    },
    {
      "inputs": [
        {
          "internalType": "bytes32",
          "name": "printHash",
          "type": "bytes32"
        },
        {
          "internalType": "bytes32",
          "name": "printerHash",
          "type": "bytes32"
        },
        {
          "internalType": "enum JobManager.JobStatus",
          "name": "status",
          "type": "uint8"
        }
      ],
      "name": "updateJobStatus",
      "outputs": [],
      "stateMutability": "nonpayable",
      "type": "function"
    },
    {
      "inputs": [
        {
          "internalType": "bytes32",
          "name": "printHash",
          "type": "bytes32"
        },
        {
          "internalType": "bytes32",
          "name": "printerHash",
          "type": "bytes32"
        }
      ],
      "name": "userRequestPrintCancel",
      "outputs": [],
      "stateMutability": "nonpayable",
      "type": "function"
    },
    {
      "inputs": [],
      "name": "valuePerPoint",
      "outputs": [
        {
          "internalType": "uint256",
          "name": "",
          "type": "uint256"
        }
      ],
      "stateMutability": "view",
      "type": "function"
    }
  ],
  "bytecode": "0x60806040526000600360006101000a81548173ffffffffffffffffffffffffffffffffffffffff021916908373ffffffffffffffffffffffffffffffffffffffff160217905550600560085560016009553480156200005d57600080fd5b5060405162002c1938038062002c19833981810160405281019062000083919062000242565b80600073ffffffffffffffffffffffffffffffffffffffff168173ffffffffffffffffffffffffffffffffffffffff1603620000f95760006040517f1e4fbdf7000000000000000000000000000000000000000000000000000000008152600401620000f0919062000285565b60405180910390fd5b6200010a816200011260201b60201c565b5050620002a2565b6000600d60009054906101000a900473ffffffffffffffffffffffffffffffffffffffff16905081600d60006101000a81548173ffffffffffffffffffffffffffffffffffffffff021916908373ffffffffffffffffffffffffffffffffffffffff1602179055508173ffffffffffffffffffffffffffffffffffffffff168173ffffffffffffffffffffffffffffffffffffffff167f8be0079c531659141344cd1fd0a4f28419497f9722a3daafe3b4186f6b6457e060405160405180910390a35050565b600080fd5b600073ffffffffffffffffffffffffffffffffffffffff82169050919050565b60006200020a82620001dd565b9050919050565b6200021c81620001fd565b81146200022857600080fd5b50565b6000815190506200023c8162000211565b92915050565b6000602082840312156200025b576200025a620001d8565b5b60006200026b848285016200022b565b91505092915050565b6200027f81620001fd565b82525050565b60006020820190506200029c600083018462000274565b92915050565b61296780620002b26000396000f3fe608060405234801561001057600080fd5b506004361061018e5760003560e01c80637aea4f70116100de578063af49318b11610097578063d41c3a6511610071578063d41c3a65146104a7578063d5a3b54c146104c5578063f2fde38b146104e1578063fdad0319146104fd5761018e565b8063af49318b1461043f578063b2af00b41461045b578063bb91f47c146104775761018e565b80637aea4f70146103455780638da5cb5b1461037557806390103cf014610393578063943df19d146103c35780639531db11146103f3578063a47a61871461040f5761018e565b806338d836c21161014b5780636298eb5c116101255780636298eb5c146102d15780636a326ab1146102ef5780636e42176c1461030b578063715018a61461033b5761018e565b806338d836c2146102535780633bbc4d341461028357806340a233a6146102b35761018e565b806307d4cfda146101935780630b5cec95146101af5780632081f4c8146101cb578063243a16fc146101fb5780632f310bad146102175780632ffdb34214610235575b600080fd5b6101ad60048036038101906101a89190611d6d565b61052d565b005b6101c960048036038101906101c49190611ddc565b61053d565b005b6101e560048036038101906101e09190611e09565b610551565b6040516101f29190611ead565b60405180910390f35b61021560048036038101906102109190611ec8565b61057a565b005b61021f6106eb565b60405161022c9190611f17565b60405180910390f35b61023d610711565b60405161024a9190611f4b565b60405180910390f35b61026d60048036038101906102689190611e09565b610717565b60405161027a9190611f17565b60405180910390f35b61029d60048036038101906102989190611e09565b610754565b6040516102aa9190611f4b565b60405180910390f35b6102bb610771565b6040516102c89190611f4b565b60405180910390f35b6102d9610777565b6040516102e69190611f4b565b60405180910390f35b61030960048036038101906103049190611ddc565b61077d565b005b61032560048036038101906103209190612007565b610791565b604051610332919061205f565b60405180910390f35b6103436107a2565b005b61035f600480360381019061035a9190611e09565b6107b6565b60405161036c9190612095565b60405180910390f35b61037d610806565b60405161038a9190611f17565b60405180910390f35b6103ad60048036038101906103a891906120dc565b610830565b6040516103ba919061205f565b60405180910390f35b6103dd60048036038101906103d89190611e09565b6108a0565b6040516103ea9190612095565b60405180910390f35b61040d6004803603810190610408919061215f565b6108f1565b005b61042960048036038101906104249190611e09565b610905565b604051610436919061205f565b60405180910390f35b610459600480360381019061045491906121b1565b610922565b005b6104756004803603810190610470919061215f565b610a05565b005b610491600480360381019061048c9190611e09565b610a19565b60405161049e9190612095565b60405180910390f35b6104af610a43565b6040516104bc9190611f17565b60405180910390f35b6104df60048036038101906104da9190612204565b610a6d565b005b6104fb60048036038101906104f69190611ddc565b610b5b565b005b61051760048036038101906105129190611e09565b610be1565b6040516105249190611f17565b60405180910390f35b610538838383610c1e565b505050565b610545610d5e565b61054e81610de5565b50565b600080600083815260200190815260200160002060009054906101000a900460ff169050919050565b81336001600083815260200190815260200160002060009054906101000a900473ffffffffffffffffffffffffffffffffffffffff1673ffffffffffffffffffffffffffffffffffffffff168173ffffffffffffffffffffffffffffffffffffffff161461061d576040517f08c379a0000000000000000000000000000000000000000000000000000000008152600401610614906122b4565b60405180910390fd5b610626846107b6565b610665576040517f08c379a000000000000000000000000000000000000000000000000000000000815260040161065c90612320565b60405180910390fd5b600660008086815260200190815260200160002060006101000a81548160ff0219169083600681111561069b5761069a611e36565b5b021790555082843373ffffffffffffffffffffffffffffffffffffffff167f9c3956aca445d24a9b0e4e1052853a72f08f40e391c6e5cf444f2ab3be9c784660405160405180910390a450505050565b600b60009054906101000a900473ffffffffffffffffffffffffffffffffffffffff1681565b60085481565b60006001600083815260200190815260200160002060009054906101000a900473ffffffffffffffffffffffffffffffffffffffff169050919050565b600060046000838152602001908152602001600020549050919050565b600a5481565b60095481565b610785610d5e565b61078e81610ed1565b50565b600081805190602001209050919050565b6107aa610d5e565b6107b46000610fe0565b565b60008060068111156107cb576107ca611e36565b5b60008084815260200190815260200160002060009054906101000a900460ff1660068111156107fd576107fc611e36565b5b14159050919050565b6000600d60009054906101000a900473ffffffffffffffffffffffffffffffffffffffff16905090565b600061083b85610a19565b61087a576040517f08c379a00000000000000000000000000000000000000000000000000000000081526004016108719061238c565b60405180910390fd5b60006108878686856110a6565b90506108948185876111ee565b80915050949350505050565b6000600360068111156108b6576108b5611e36565b5b60008084815260200190815260200160002060009054906101000a900460ff1660068111156108e8576108e7611e36565b5b14159050919050565b6108f9610d5e565b61090281611411565b50565b600060026000838152602001908152602001600020549050919050565b33828173ffffffffffffffffffffffffffffffffffffffff1661094482610be1565b73ffffffffffffffffffffffffffffffffffffffff161461099a576040517f08c379a0000000000000000000000000000000000000000000000000000000008152600401610991906123f8565b60405180910390fd5b8484600260008381526020019081526020016000205481146109f1576040517f08c379a00000000000000000000000000000000000000000000000000000000081526004016109e890612464565b60405180910390fd5b6109fc87878761145e565b50505050505050565b610a0d610d5e565b610a16816114f6565b50565b60006007600083815260200190815260200160002060009054906101000a900460ff169050919050565b6000600360009054906101000a900473ffffffffffffffffffffffffffffffffffffffff16905090565b33828173ffffffffffffffffffffffffffffffffffffffff16610a8f82610be1565b73ffffffffffffffffffffffffffffffffffffffff1614610ae5576040517f08c379a0000000000000000000000000000000000000000000000000000000008152600401610adc906123f8565b60405180910390fd5b848460026000838152602001908152602001600020548114610b3c576040517f08c379a0000000000000000000000000000000000000000000000000000000008152600401610b3390612464565b60405180910390fd5b610b488787600361145e565b610b52878661150b565b50505050505050565b610b63610d5e565b600073ffffffffffffffffffffffffffffffffffffffff168173ffffffffffffffffffffffffffffffffffffffff1603610bd55760006040517f1e4fbdf7000000000000000000000000000000000000000000000000000000008152600401610bcc9190611f17565b60405180910390fd5b610bde81610fe0565b50565b60006006600083815260200190815260200160002060009054906101000a900473ffffffffffffffffffffffffffffffffffffffff169050919050565b3073ffffffffffffffffffffffffffffffffffffffff168273ffffffffffffffffffffffffffffffffffffffff1603610c8c576040517f08c379a0000000000000000000000000000000000000000000000000000000008152600401610c83906124d0565b60405180910390fd5b60016007600085815260200190815260200160002060006101000a81548160ff021916908315150217905550816006600085815260200190815260200160002060006101000a81548173ffffffffffffffffffffffffffffffffffffffff021916908373ffffffffffffffffffffffffffffffffffffffff160217905550828273ffffffffffffffffffffffffffffffffffffffff167f7442b3c760b38d33876a54d8b8e41b062a93c35bf8ed7b7d74e5fe2b307e8bd683604051610d51919061255e565b60405180910390a3505050565b610d6661169e565b73ffffffffffffffffffffffffffffffffffffffff16610d84610806565b73ffffffffffffffffffffffffffffffffffffffff1614610de357610da761169e565b6040517f118cdaa7000000000000000000000000000000000000000000000000000000008152600401610dda9190611f17565b60405180910390fd5b565b600073ffffffffffffffffffffffffffffffffffffffff168173ffffffffffffffffffffffffffffffffffffffff1614158015610e4e57503073ffffffffffffffffffffffffffffffffffffffff168173ffffffffffffffffffffffffffffffffffffffff1614155b610e8d576040517f08c379a0000000000000000000000000000000000000000000000000000000008152600401610e84906125cc565b60405180910390fd5b80600b60006101000a81548173ffffffffffffffffffffffffffffffffffffffff021916908373ffffffffffffffffffffffffffffffffffffffff16021790555050565b600073ffffffffffffffffffffffffffffffffffffffff168173ffffffffffffffffffffffffffffffffffffffff1603610f37576040517fd92e233d00000000000000000000000000000000000000000000000000000000815260040160405180910390fd5b3073ffffffffffffffffffffffffffffffffffffffff168173ffffffffffffffffffffffffffffffffffffffff1603610f9c576040517fe6c4247b00000000000000000000000000000000000000000000000000000000815260040160405180910390fd5b80600360006101000a81548173ffffffffffffffffffffffffffffffffffffffff021916908373ffffffffffffffffffffffffffffffffffffffff16021790555050565b6000600d60009054906101000a900473ffffffffffffffffffffffffffffffffffffffff16905081600d60006101000a81548173ffffffffffffffffffffffffffffffffffffffff021916908373ffffffffffffffffffffffffffffffffffffffff1602179055508173ffffffffffffffffffffffffffffffffffffffff168173ffffffffffffffffffffffffffffffffffffffff167f8be0079c531659141344cd1fd0a4f28419497f9722a3daafe3b4186f6b6457e060405160405180910390a35050565b60003073ffffffffffffffffffffffffffffffffffffffff168373ffffffffffffffffffffffffffffffffffffffff16036110e057600080fd5b60006110ec85846116a6565b9050600160008083815260200190815260200160002060006101000a81548160ff0219169083600681111561112457611123611e36565b5b0217905550836001600083815260200190815260200160002060006101000a81548173ffffffffffffffffffffffffffffffffffffffff021916908373ffffffffffffffffffffffffffffffffffffffff16021790555084600260008381526020019081526020016000208190555084818573ffffffffffffffffffffffffffffffffffffffff167f7dcf34a6c01dbc4ca140535db5a9c4097e978278988ce11077dfd823c4ecb87c866040516111db919061255e565b60405180910390a4809150509392505050565b82600080600681111561120457611203611e36565b5b6005600084815260200190815260200160002060009054906101000a900460ff16600681111561123757611236611e36565b5b14611277576040517f08c379a000000000000000000000000000000000000000000000000000000000815260040161126e90612638565b60405180910390fd5b60018410156112b2576040517f1f2a200500000000000000000000000000000000000000000000000000000000815260040160405180910390fd5b3073ffffffffffffffffffffffffffffffffffffffff16600360009054906101000a900473ffffffffffffffffffffffffffffffffffffffff1673ffffffffffffffffffffffffffffffffffffffff1603611339576040517fe6c4247b00000000000000000000000000000000000000000000000000000000815260040160405180910390fd5b611367600360009054906101000a900473ffffffffffffffffffffffffffffffffffffffff168430876116d9565b83600460008781526020019081526020016000208190555060016005600087815260200190815260200160002060006101000a81548160ff021916908360068111156113b6576113b5611e36565b5b02179055508273ffffffffffffffffffffffffffffffffffffffff16857fa7349eaff0f04bf9c69fe64b5e86e41ee267852570ae1acdae697c6653e95a02866040516114029190611f4b565b60405180910390a35050505050565b60008111611454576040517f08c379a000000000000000000000000000000000000000000000000000000000815260040161144b906126a4565b60405180910390fd5b8060098190555050565b8282600260008381526020019081526020016000205481146114b5576040517f08c379a00000000000000000000000000000000000000000000000000000000081526004016114ac90612464565b60405180910390fd5b8260008087815260200190815260200160002060006101000a81548160ff021916908360068111156114ea576114e9611e36565b5b02179055505050505050565b804261150291906126f3565b600a8190555050565b81600180600681111561152157611520611e36565b5b6005600084815260200190815260200160002060009054906101000a900460ff16600681111561155457611553611e36565b5b14611594576040517f08c379a000000000000000000000000000000000000000000000000000000000815260040161158b90612638565b60405180910390fd5b82600460008681526020019081526020016000205410156115e1576040517f5945ea5600000000000000000000000000000000000000000000000000000000815260040160405180910390fd5b600580600086815260200190815260200160002060006101000a81548160ff0219169083600681111561161757611616611e36565b5b0217905550611649600360009054906101000a900473ffffffffffffffffffffffffffffffffffffffff16338561175b565b3373ffffffffffffffffffffffffffffffffffffffff16847f45652f5704babe8631839774cd638452bb18d9995de3dc566141b5bbdce42f45856040516116909190611f4b565b60405180910390a350505050565b600033905090565b600081836040516020016116bb929190612784565b60405160208183030381529060405280519060200120905092915050565b611755848573ffffffffffffffffffffffffffffffffffffffff166323b872dd86868660405160240161170e939291906127ac565b604051602081830303815290604052915060e01b6020820180517bffffffffffffffffffffffffffffffffffffffffffffffffffffffff838183161783525050505061186a565b50505050565b60008373ffffffffffffffffffffffffffffffffffffffff1663095ea7b3848460405160240161178c9291906127e3565b604051602081830303815290604052915060e01b6020820180517bffffffffffffffffffffffffffffffffffffffffffffffffffffffff838183161783525050505090506117da8482611901565b61186457611859848573ffffffffffffffffffffffffffffffffffffffff1663095ea7b3866000604051602401611812929190612851565b604051602081830303815290604052915060e01b6020820180517bffffffffffffffffffffffffffffffffffffffffffffffffffffffff838183161783525050505061186a565b611863848261186a565b5b50505050565b6000611895828473ffffffffffffffffffffffffffffffffffffffff166119c890919063ffffffff16565b905060008151141580156118ba5750808060200190518101906118b891906128a6565b155b156118fc57826040517f5274afe70000000000000000000000000000000000000000000000000000000081526004016118f39190611f17565b60405180910390fd5b505050565b60008060008473ffffffffffffffffffffffffffffffffffffffff168460405161192b919061291a565b6000604051808303816000865af19150503d8060008114611968576040519150601f19603f3d011682016040523d82523d6000602084013e61196d565b606091505b509150915081801561199b575060008151148061199a57508080602001905181019061199991906128a6565b5b5b80156119be575060008573ffffffffffffffffffffffffffffffffffffffff163b115b9250505092915050565b60606119d6838360006119de565b905092915050565b606081471015611a2557306040517fcd786059000000000000000000000000000000000000000000000000000000008152600401611a1c9190611f17565b60405180910390fd5b6000808573ffffffffffffffffffffffffffffffffffffffff168486604051611a4e919061291a565b60006040518083038185875af1925050503d8060008114611a8b576040519150601f19603f3d011682016040523d82523d6000602084013e611a90565b606091505b5091509150611aa0868383611aab565b925050509392505050565b606082611ac057611abb82611b3a565b611b32565b60008251148015611ae8575060008473ffffffffffffffffffffffffffffffffffffffff163b145b15611b2a57836040517f9996b315000000000000000000000000000000000000000000000000000000008152600401611b219190611f17565b60405180910390fd5b819050611b33565b5b9392505050565b600081511115611b4d5780518082602001fd5b6040517f1425ea4200000000000000000000000000000000000000000000000000000000815260040160405180910390fd5b6000604051905090565b600080fd5b600080fd5b6000819050919050565b611ba681611b93565b8114611bb157600080fd5b50565b600081359050611bc381611b9d565b92915050565b600073ffffffffffffffffffffffffffffffffffffffff82169050919050565b6000611bf482611bc9565b9050919050565b611c0481611be9565b8114611c0f57600080fd5b50565b600081359050611c2181611bfb565b92915050565b600080fd5b600080fd5b6000601f19601f8301169050919050565b7f4e487b7100000000000000000000000000000000000000000000000000000000600052604160045260246000fd5b611c7a82611c31565b810181811067ffffffffffffffff82111715611c9957611c98611c42565b5b80604052505050565b6000611cac611b7f565b9050611cb88282611c71565b919050565b600067ffffffffffffffff821115611cd857611cd7611c42565b5b611ce182611c31565b9050602081019050919050565b82818337600083830152505050565b6000611d10611d0b84611cbd565b611ca2565b905082815260208101848484011115611d2c57611d2b611c2c565b5b611d37848285611cee565b509392505050565b600082601f830112611d5457611d53611c27565b5b8135611d64848260208601611cfd565b91505092915050565b600080600060608486031215611d8657611d85611b89565b5b6000611d9486828701611bb4565b9350506020611da586828701611c12565b925050604084013567ffffffffffffffff811115611dc657611dc5611b8e565b5b611dd286828701611d3f565b9150509250925092565b600060208284031215611df257611df1611b89565b5b6000611e0084828501611c12565b91505092915050565b600060208284031215611e1f57611e1e611b89565b5b6000611e2d84828501611bb4565b91505092915050565b7f4e487b7100000000000000000000000000000000000000000000000000000000600052602160045260246000fd5b60078110611e7657611e75611e36565b5b50565b6000819050611e8782611e65565b919050565b6000611e9782611e79565b9050919050565b611ea781611e8c565b82525050565b6000602082019050611ec26000830184611e9e565b92915050565b60008060408385031215611edf57611ede611b89565b5b6000611eed85828601611bb4565b9250506020611efe85828601611bb4565b9150509250929050565b611f1181611be9565b82525050565b6000602082019050611f2c6000830184611f08565b92915050565b6000819050919050565b611f4581611f32565b82525050565b6000602082019050611f606000830184611f3c565b92915050565b600067ffffffffffffffff821115611f8157611f80611c42565b5b611f8a82611c31565b9050602081019050919050565b6000611faa611fa584611f66565b611ca2565b905082815260208101848484011115611fc657611fc5611c2c565b5b611fd1848285611cee565b509392505050565b600082601f830112611fee57611fed611c27565b5b8135611ffe848260208601611f97565b91505092915050565b60006020828403121561201d5761201c611b89565b5b600082013567ffffffffffffffff81111561203b5761203a611b8e565b5b61204784828501611fd9565b91505092915050565b61205981611b93565b82525050565b60006020820190506120746000830184612050565b92915050565b60008115159050919050565b61208f8161207a565b82525050565b60006020820190506120aa6000830184612086565b92915050565b6120b981611f32565b81146120c457600080fd5b50565b6000813590506120d6816120b0565b92915050565b600080600080608085870312156120f6576120f5611b89565b5b600061210487828801611bb4565b945050602061211587828801611c12565b9350506040612126878288016120c7565b925050606085013567ffffffffffffffff81111561214757612146611b8e565b5b61215387828801611d3f565b91505092959194509250565b60006020828403121561217557612174611b89565b5b6000612183848285016120c7565b91505092915050565b6007811061219957600080fd5b50565b6000813590506121ab8161218c565b92915050565b6000806000606084860312156121ca576121c9611b89565b5b60006121d886828701611bb4565b93505060206121e986828701611bb4565b92505060406121fa8682870161219c565b9150509250925092565b60008060006060848603121561221d5761221c611b89565b5b600061222b86828701611bb4565b935050602061223c86828701611bb4565b925050604061224d868287016120c7565b9150509250925092565b600082825260208201905092915050565b7f4e6f74207072696e74206f776e65720000000000000000000000000000000000600082015250565b600061229e600f83612257565b91506122a982612268565b602082019050919050565b600060208201905081810360008301526122cd81612291565b9050919050565b7f496e76616c6964207072696e7420686173680000000000000000000000000000600082015250565b600061230a601283612257565b9150612315826122d4565b602082019050919050565b60006020820190508181036000830152612339816122fd565b9050919050565b7f496e76616c6964207072696e7465720000000000000000000000000000000000600082015250565b6000612376600f83612257565b915061238182612340565b602082019050919050565b600060208201905081810360008301526123a581612369565b9050919050565b7f4f6e6c79207072696e746572206f776e65720000000000000000000000000000600082015250565b60006123e2601283612257565b91506123ed826123ac565b602082019050919050565b60006020820190508181036000830152612411816123d5565b9050919050565b7f4e6f74207072696e746572206f776e6572000000000000000000000000000000600082015250565b600061244e601183612257565b915061245982612418565b602082019050919050565b6000602082019050818103600083015261247d81612441565b9050919050565b7f496e76616c6964206f776e657200000000000000000000000000000000000000600082015250565b60006124ba600d83612257565b91506124c582612484565b602082019050919050565b600060208201905081810360008301526124e9816124ad565b9050919050565b600081519050919050565b60005b838110156125195780820151818401526020810190506124fe565b60008484015250505050565b6000612530826124f0565b61253a8185612257565b935061254a8185602086016124fb565b61255381611c31565b840191505092915050565b600060208201905081810360008301526125788184612525565b905092915050565b7f496e76616c69642072656465656d206164647265737300000000000000000000600082015250565b60006125b6601683612257565b91506125c182612580565b602082019050919050565b600060208201905081810360008301526125e5816125a9565b9050919050565b7f496e76616c6964207061796d656e7420616374696f6e00000000000000000000600082015250565b6000612622601683612257565b915061262d826125ec565b602082019050919050565b6000602082019050818103600083015261265181612615565b9050919050565b7f56616c7565206d7573742062652067726561746572207468616e207a65726f00600082015250565b600061268e601f83612257565b915061269982612658565b602082019050919050565b600060208201905081810360008301526126bd81612681565b9050919050565b7f4e487b7100000000000000000000000000000000000000000000000000000000600052601160045260246000fd5b60006126fe82611f32565b915061270983611f32565b9250828201905080821115612721576127206126c4565b5b92915050565b600081905092915050565b600061273d826124f0565b6127478185612727565b93506127578185602086016124fb565b80840191505092915050565b6000819050919050565b61277e61277982611b93565b612763565b82525050565b60006127908285612732565b915061279c828461276d565b6020820191508190509392505050565b60006060820190506127c16000830186611f08565b6127ce6020830185611f08565b6127db6040830184611f3c565b949350505050565b60006040820190506127f86000830185611f08565b6128056020830184611f3c565b9392505050565b6000819050919050565b6000819050919050565b600061283b6128366128318461280c565b612816565b611f32565b9050919050565b61284b81612820565b82525050565b60006040820190506128666000830185611f08565b6128736020830184612842565b9392505050565b6128838161207a565b811461288e57600080fd5b50565b6000815190506128a08161287a565b92915050565b6000602082840312156128bc576128bb611b89565b5b60006128ca84828501612891565b91505092915050565b600081519050919050565b600081905092915050565b60006128f4826128d3565b6128fe81856128de565b935061290e8185602086016124fb565b80840191505092915050565b600061292682846128e9565b91508190509291505056fea2646970667358221220ef17ff191c6a15824e882713c411ba544601b4a6e47c8a16b426e4cd8c97746964736f6c63430008140033",
  "linkReferences": {},
  "deployedLinkReferences": {}
}