{
  "_format": "hh-sol-artifact-1",
  "contractName": "PrinterManager",
  "sourceName": "contracts/PrinterManager.sol",
  "abi": [
    {
      "anonymous": false,
      "inputs": [
        {
          "indexed": true,
          "internalType": "address",
          "name": "owner",
          "type": "address"
        },
        {
          "indexed": true,
          "internalType": "bytes32",
          "name": "printerHash",
          "type": "bytes32"
        },
        {
          "indexed": false,
          "internalType": "string",
          "name": "cid",
          "type": "string"
        }
      ],
      "name": "PrinterCreated",
      "type": "event"
    },
    {
      "anonymous": false,
      "inputs": [
        {
          "indexed": true,
          "internalType": "address",
          "name": "owner",
          "type": "address"
        },
        {
          "indexed": true,
          "internalType": "bytes32",
          "name": "printerHash",
          "type": "bytes32"
        }
      ],
      "name": "PrinterRemoved",
      "type": "event"
    },
    {
      "inputs": [
        {
          "internalType": "bytes32",
          "name": "printerHash",
          "type": "bytes32"
        }
      ],
      "name": "getPrinterOwner",
      "outputs": [
        {
          "internalType": "address",
          "name": "",
          "type": "address"
        }
      ],
      "stateMutability": "view",
      "type": "function"
    },
    {
      "inputs": [
        {
          "internalType": "bytes",
          "name": "printerDetails",
          "type": "bytes"
        }
      ],
      "name": "getPrinterhash",
      "outputs": [
        {
          "internalType": "bytes32",
          "name": "",
          "type": "bytes32"
        }
      ],
      "stateMutability": "pure",
      "type": "function"
    },
    {
      "inputs": [
        {
          "internalType": "bytes32",
          "name": "printerHash",
          "type": "bytes32"
        }
      ],
      "name": "isPrinter",
      "outputs": [
        {
          "internalType": "bool",
          "name": "",
          "type": "bool"
        }
      ],
      "stateMutability": "view",
      "type": "function"
    }
  ],
  "bytecode": "0x608060405234801561001057600080fd5b50610445806100206000396000f3fe608060405234801561001057600080fd5b50600436106100415760003560e01c80636e42176c14610046578063bb91f47c14610076578063fdad0319146100a6575b600080fd5b610060600480360381019061005b91906102a7565b6100d6565b60405161006d9190610309565b60405180910390f35b610090600480360381019061008b9190610350565b6100e7565b60405161009d9190610398565b60405180910390f35b6100c060048036038101906100bb9190610350565b610111565b6040516100cd91906103f4565b60405180910390f35b600081805190602001209050919050565b60006001600083815260200190815260200160002060009054906101000a900460ff169050919050565b600080600083815260200190815260200160002060009054906101000a900473ffffffffffffffffffffffffffffffffffffffff169050919050565b6000604051905090565b600080fd5b600080fd5b600080fd5b600080fd5b6000601f19601f8301169050919050565b7f4e487b7100000000000000000000000000000000000000000000000000000000600052604160045260246000fd5b6101b48261016b565b810181811067ffffffffffffffff821117156101d3576101d261017c565b5b80604052505050565b60006101e661014d565b90506101f282826101ab565b919050565b600067ffffffffffffffff8211156102125761021161017c565b5b61021b8261016b565b9050602081019050919050565b82818337600083830152505050565b600061024a610245846101f7565b6101dc565b90508281526020810184848401111561026657610265610166565b5b610271848285610228565b509392505050565b600082601f83011261028e5761028d610161565b5b813561029e848260208601610237565b91505092915050565b6000602082840312156102bd576102bc610157565b5b600082013567ffffffffffffffff8111156102db576102da61015c565b5b6102e784828501610279565b91505092915050565b6000819050919050565b610303816102f0565b82525050565b600060208201905061031e60008301846102fa565b92915050565b61032d816102f0565b811461033857600080fd5b50565b60008135905061034a81610324565b92915050565b60006020828403121561036657610365610157565b5b60006103748482850161033b565b91505092915050565b60008115159050919050565b6103928161037d565b82525050565b60006020820190506103ad6000830184610389565b92915050565b600073ffffffffffffffffffffffffffffffffffffffff82169050919050565b60006103de826103b3565b9050919050565b6103ee816103d3565b82525050565b600060208201905061040960008301846103e5565b9291505056fea2646970667358221220e2257dd4c6f07da22f731d5444e86a946aa3f841cb8a740c66b16bb5c2f9f6c864736f6c63430008140033",
  "linkReferences": {},
  "deployedLinkReferences": {}
}