{
  "_format": "hh-sol-artifact-1",
  "contractName": "PaymentManager",
  "sourceName": "contracts/PaymentManager.sol",
  "abi": [
    {
      "anonymous": false,
      "inputs": [
        {
          "indexed": true,
          "internalType": "bytes32",
          "name": "printHash",
          "type": "bytes32"
        },
        {
          "indexed": true,
          "internalType": "address",
          "name": "owner",
          "type": "address"
        },
        {
          "indexed": false,
          "internalType": "uint256",
          "name": "amount",
          "type": "uint256"
        }
      ],
      "name": "PaymentLocked",
      "type": "event"
    },
    {
      "anonymous": false,
      "inputs": [
        {
          "indexed": true,
          "internalType": "bytes32",
          "name": "printHash",
          "type": "bytes32"
        },
        {
          "indexed": true,
          "internalType": "address",
          "name": "owner",
          "type": "address"
        },
        {
          "indexed": false,
          "internalType": "uint256",
          "name": "amount",
          "type": "uint256"
        }
      ],
      "name": "RefundRequested",
      "type": "event"
    },
    {
      "inputs": [
        {
          "internalType": "bytes32",
          "name": "printHash",
          "type": "bytes32"
        }
      ],
      "name": "getPrintBalance",
      "outputs": [
        {
          "internalType": "uint256",
          "name": "",
          "type": "uint256"
        }
      ],
      "stateMutability": "view",
      "type": "function"
    },
    {
      "inputs": [
        {
          "internalType": "bytes32",
          "name": "printHash",
          "type": "bytes32"
        }
      ],
      "name": "paymentStatus",
      "outputs": [
        {
          "internalType": "enum PaymentManager.PaymentStatus",
          "name": "",
          "type": "uint8"
        }
      ],
      "stateMutability": "view",
      "type": "function"
    },
    {
      "inputs": [],
      "name": "paymentToken",
      "outputs": [
        {
          "internalType": "address",
          "name": "",
          "type": "address"
        }
      ],
      "stateMutability": "view",
      "type": "function"
    }
  ],
  "bytecode": "0x608060405260008060006101000a81548173ffffffffffffffffffffffffffffffffffffffff021916908373ffffffffffffffffffffffffffffffffffffffff16021790555034801561005157600080fd5b506102f4806100616000396000f3fe608060405234801561001057600080fd5b50600436106100415760003560e01c80633013ce29146100465780633bbc4d34146100645780634630aa1814610094575b600080fd5b61004e6100c4565b60405161005b9190610175565b60405180910390f35b61007e600480360381019061007991906101cb565b6100ed565b60405161008b9190610211565b60405180910390f35b6100ae60048036038101906100a991906101cb565b61010a565b6040516100bb91906102a3565b60405180910390f35b60008060009054906101000a900473ffffffffffffffffffffffffffffffffffffffff16905090565b600060016000838152602001908152602001600020549050919050565b60006002600083815260200190815260200160002060009054906101000a900460ff169050919050565b600073ffffffffffffffffffffffffffffffffffffffff82169050919050565b600061015f82610134565b9050919050565b61016f81610154565b82525050565b600060208201905061018a6000830184610166565b92915050565b600080fd5b6000819050919050565b6101a881610195565b81146101b357600080fd5b50565b6000813590506101c58161019f565b92915050565b6000602082840312156101e1576101e0610190565b5b60006101ef848285016101b6565b91505092915050565b6000819050919050565b61020b816101f8565b82525050565b60006020820190506102266000830184610202565b92915050565b7f4e487b7100000000000000000000000000000000000000000000000000000000600052602160045260246000fd5b6007811061026c5761026b61022c565b5b50565b600081905061027d8261025b565b919050565b600061028d8261026f565b9050919050565b61029d81610282565b82525050565b60006020820190506102b86000830184610294565b9291505056fea26469706673582212202b7025dfd955611d007e1c086e58143db790c53e82954f8af71b8d6ea7e4c54464736f6c63430008140033",
  "linkReferences": {},
  "deployedLinkReferences": {}
}