{
  "_format": "hh-sol-artifact-1",
  "contractName": "XPrint",
  "sourceName": "contracts/Xprint.sol",
  "abi": [
    {
      "inputs": [
        {
          "internalType": "address",
          "name": "initialOwner",
          "type": "address"
        }
      ],
      "stateMutability": "nonpayable",
      "type": "constructor"
    },
    {
      "inputs": [
        {
          "internalType": "address",
          "name": "target",
          "type": "address"
        }
      ],
      "name": "AddressEmptyCode",
      "type": "error"
    },
    {
      "inputs": [
        {
          "internalType": "address",
          "name": "account",
          "type": "address"
        }
      ],
      "name": "AddressInsufficientBalance",
      "type": "error"
    },
    {
      "inputs": [],
      "name": "FailedInnerCall",
      "type": "error"
    },
    {
      "inputs": [],
      "name": "InsufficientAmount",
      "type": "error"
    },
    {
      "inputs": [],
      "name": "InvalidAddress",
      "type": "error"
    },
    {
      "inputs": [
        {
          "internalType": "address",
          "name": "owner",
          "type": "address"
        }
      ],
      "name": "OwnableInvalidOwner",
      "type": "error"
    },
    {
      "inputs": [
        {
          "internalType": "address",
          "name": "account",
          "type": "address"
        }
      ],
      "name": "OwnableUnauthorizedAccount",
      "type": "error"
    },
    {
      "inputs": [
        {
          "internalType": "address",
          "name": "token",
          "type": "address"
        }
      ],
      "name": "SafeERC20FailedOperation",
      "type": "error"
    },
    {
      "inputs": [],
      "name": "ZeroAddress",
      "type": "error"
    },
    {
      "inputs": [],
      "name": "ZeroAmount",
      "type": "error"
    },
    {
      "anonymous": false,
      "inputs": [
        {
          "indexed": true,
          "internalType": "address",
          "name": "owner",
          "type": "address"
        },
        {
          "indexed": true,
          "internalType": "bytes32",
          "name": "printHash",
          "type": "bytes32"
        },
        {
          "indexed": true,
          "internalType": "bytes32",
          "name": "printerHash",
          "type": "bytes32"
        },
        {
          "indexed": false,
          "internalType": "string",
          "name": "docHash",
          "type": "string"
        }
      ],
      "name": "JobIssued",
      "type": "event"
    },
    {
      "anonymous": false,
      "inputs": [
        {
          "indexed": true,
          "internalType": "address",
          "name": "previousOwner",
          "type": "address"
        },
        {
          "indexed": true,
          "internalType": "address",
          "name": "newOwner",
          "type": "address"
        }
      ],
      "name": "OwnershipTransferred",
      "type": "event"
    },
    {
      "anonymous": false,
      "inputs": [
        {
          "indexed": true,
          "internalType": "bytes32",
          "name": "printHash",
          "type": "bytes32"
        },
        {
          "indexed": true,
          "internalType": "address",
          "name": "owner",
          "type": "address"
        },
        {
          "indexed": false,
          "internalType": "uint256",
          "name": "amount",
          "type": "uint256"
        }
      ],
      "name": "PaymentLocked",
      "type": "event"
    },
    {
      "anonymous": false,
      "inputs": [
        {
          "indexed": true,
          "internalType": "bytes32",
          "name": "printHash",
          "type": "bytes32"
        },
        {
          "indexed": true,
          "internalType": "bytes32",
          "name": "printerHash",
          "type": "bytes32"
        }
      ],
      "name": "PrintCancelled",
      "type": "event"
    },
    {
      "anonymous": false,
      "inputs": [
        {
          "indexed": true,
          "internalType": "address",
          "name": "owner",
          "type": "address"
        },
        {
          "indexed": true,
          "internalType": "bytes32",
          "name": "printerHash",
          "type": "bytes32"
        },
        {
          "indexed": false,
          "internalType": "string",
          "name": "cid",
          "type": "string"
        }
      ],
      "name": "PrinterCreated",
      "type": "event"
    },
    {
      "anonymous": false,
      "inputs": [
        {
          "indexed": true,
          "internalType": "address",
          "name": "owner",
          "type": "address"
        },
        {
          "indexed": true,
          "internalType": "bytes32",
          "name": "printerHash",
          "type": "bytes32"
        }
      ],
      "name": "PrinterRemoved",
      "type": "event"
    },
    {
      "anonymous": false,
      "inputs": [
        {
          "indexed": true,
          "internalType": "bytes32",
          "name": "printHash",
          "type": "bytes32"
        },
        {
          "indexed": true,
          "internalType": "address",
          "name": "owner",
          "type": "address"
        },
        {
          "indexed": false,
          "internalType": "uint256",
          "name": "amount",
          "type": "uint256"
        }
      ],
      "name": "RefundRequested",
      "type": "event"
    },
    {
      "anonymous": false,
      "inputs": [
        {
          "indexed": true,
          "internalType": "address",
          "name": "owner",
          "type": "address"
        },
        {
          "indexed": true,
          "internalType": "bytes32",
          "name": "printHash",
          "type": "bytes32"
        },
        {
          "indexed": true,
          "internalType": "bytes32",
          "name": "printerHash",
          "type": "bytes32"
        }
      ],
      "name": "RequestPrintCancel",
      "type": "event"
    },
    {
      "inputs": [
        {
          "internalType": "bytes32",
          "name": "printHash",
          "type": "bytes32"
        }
      ],
      "name": "getJobStatus",
      "outputs": [
        {
          "internalType": "enum JobManager.JobStatus",
          "name": "",
          "type": "uint8"
        }
      ],
      "stateMutability": "view",
      "type": "function"
    },
    {
      "inputs": [
        {
          "internalType": "bytes32",
          "name": "printHash",
          "type": "bytes32"
        }
      ],
      "name": "getPrintBalance",
      "outputs": [
        {
          "internalType": "uint256",
          "name": "",
          "type": "uint256"
        }
      ],
      "stateMutability": "view",
      "type": "function"
    },
    {
      "inputs": [
        {
          "internalType": "bytes32",
          "name": "hash",
          "type": "bytes32"
        }
      ],
      "name": "getPrintHashOwner",
      "outputs": [
        {
          "internalType": "address",
          "name": "",
          "type": "address"
        }
      ],
      "stateMutability": "view",
      "type": "function"
    },
    {
      "inputs": [
        {
          "internalType": "bytes32",
          "name": "hash",
          "type": "bytes32"
        }
      ],
      "name": "getPrintHashPrinter",
      "outputs": [
        {
          "internalType": "bytes32",
          "name": "",
          "type": "bytes32"
        }
      ],
      "stateMutability": "view",
      "type": "function"
    },
    {
      "inputs": [
        {
          "internalType": "bytes32",
          "name": "printerHash",
          "type": "bytes32"
        }
      ],
      "name": "getPrinterOwner",
      "outputs": [
        {
          "internalType": "address",
          "name": "",
          "type": "address"
        }
      ],
      "stateMutability": "view",
      "type": "function"
    },
    {
      "inputs": [
        {
          "internalType": "bytes",
          "name": "printerDetails",
          "type": "bytes"
        }
      ],
      "name": "getPrinterhash",
      "outputs": [
        {
          "internalType": "bytes32",
          "name": "",
          "type": "bytes32"
        }
      ],
      "stateMutability": "pure",
      "type": "function"
    },
    {
      "inputs": [
        {
          "internalType": "bytes32",
          "name": "printHash",
          "type": "bytes32"
        }
      ],
      "name": "isPrintJob",
      "outputs": [
        {
          "internalType": "bool",
          "name": "",
          "type": "bool"
        }
      ],
      "stateMutability": "view",
      "type": "function"
    },
    {
      "inputs": [
        {
          "internalType": "bytes32",
          "name": "printHash",
          "type": "bytes32"
        }
      ],
      "name": "isPrinted",
      "outputs": [
        {
          "internalType": "bool",
          "name": "",
          "type": "bool"
        }
      ],
      "stateMutability": "view",
      "type": "function"
    },
    {
      "inputs": [
        {
          "internalType": "bytes32",
          "name": "printerHash",
          "type": "bytes32"
        }
      ],
      "name": "isPrinter",
      "outputs": [
        {
          "internalType": "bool",
          "name": "",
          "type": "bool"
        }
      ],
      "stateMutability": "view",
      "type": "function"
    },
    {
      "inputs": [
        {
          "internalType": "bytes32",
          "name": "printerHash",
          "type": "bytes32"
        },
        {
          "internalType": "address",
          "name": "owner",
          "type": "address"
        },
        {
          "internalType": "uint256",
          "name": "amount",
          "type": "uint256"
        },
        {
          "internalType": "string",
          "name": "docCID",
          "type": "string"
        }
      ],
      "name": "issuePrint",
      "outputs": [
        {
          "internalType": "bytes32",
          "name": "",
          "type": "bytes32"
        }
      ],
      "stateMutability": "nonpayable",
      "type": "function"
    },
    {
      "inputs": [
        {
          "internalType": "bytes32",
          "name": "printHash",
          "type": "bytes32"
        },
        {
          "internalType": "bytes32",
          "name": "printerHash",
          "type": "bytes32"
        },
        {
          "internalType": "uint256",
          "name": "amount",
          "type": "uint256"
        }
      ],
      "name": "markPrinted",
      "outputs": [],
      "stateMutability": "nonpayable",
      "type": "function"
    },
    {
      "inputs": [],
      "name": "owner",
      "outputs": [
        {
          "internalType": "address",
          "name": "",
          "type": "address"
        }
      ],
      "stateMutability": "view",
      "type": "function"
    },
    {
      "inputs": [],
      "name": "printPoint",
      "outputs": [
        {
          "internalType": "uint256",
          "name": "",
          "type": "uint256"
        }
      ],
      "stateMutability": "view",
      "type": "function"
    },
    {
      "inputs": [
        {
          "internalType": "bytes32",
          "name": "printerHash",
          "type": "bytes32"
        },
        {
          "internalType": "address",
          "name": "owner",
          "type": "address"
        },
        {
          "internalType": "string",
          "name": "cid",
          "type": "string"
        }
      ],
      "name": "registerPrinter",
      "outputs": [],
      "stateMutability": "nonpayable",
      "type": "function"
    },
    {
      "inputs": [],
      "name": "renounceOwnership",
      "outputs": [],
      "stateMutability": "nonpayable",
      "type": "function"
    },
    {
      "inputs": [
        {
          "internalType": "address",
          "name": "token_",
          "type": "address"
        }
      ],
      "name": "setPaymentToken",
      "outputs": [],
      "stateMutability": "nonpayable",
      "type": "function"
    },
    {
      "inputs": [
        {
          "internalType": "uint256",
          "name": "point",
          "type": "uint256"
        }
      ],
      "name": "setPrintPoint",
      "outputs": [],
      "stateMutability": "nonpayable",
      "type": "function"
    },
    {
      "inputs": [
        {
          "internalType": "address",
          "name": "token",
          "type": "address"
        }
      ],
      "name": "setRedeemToken",
      "outputs": [],
      "stateMutability": "nonpayable",
      "type": "function"
    },
    {
      "inputs": [
        {
          "internalType": "uint256",
          "name": "value",
          "type": "uint256"
        }
      ],
      "name": "setValuePerPoint",
      "outputs": [],
      "stateMutability": "nonpayable",
      "type": "function"
    },
    {
      "inputs": [
        {
          "internalType": "address",
          "name": "newOwner",
          "type": "address"
        }
      ],
      "name": "transferOwnership",
      "outputs": [],
      "stateMutability": "nonpayable",
      "type": "function"
    },
    {
      "inputs": [
        {
          "internalType": "bytes32",
          "name": "printHash",
          "type": "bytes32"
        },
        {
          "internalType": "bytes32",
          "name": "printerHash",
          "type": "bytes32"
        },
        {
          "internalType": "enum JobManager.JobStatus",
          "name": "status",
          "type": "uint8"
        }
      ],
      "name": "updateJobStatus",
      "outputs": [],
      "stateMutability": "nonpayable",
      "type": "function"
    },
    {
      "inputs": [
        {
          "internalType": "bytes32",
          "name": "printHash",
          "type": "bytes32"
        },
        {
          "internalType": "bytes32",
          "name": "printerHash",
          "type": "bytes32"
        }
      ],
      "name": "userRequestPrintCancel",
      "outputs": [],
      "stateMutability": "nonpayable",
      "type": "function"
    },
    {
      "inputs": [],
      "name": "valuePerPoint",
      "outputs": [
        {
          "internalType": "uint256",
          "name": "",
          "type": "uint256"
        }
      ],
      "stateMutability": "view",
      "type": "function"
    }
  ],
  "bytecode": "0x60806040526000600360006101000a81548173ffffffffffffffffffffffffffffffffffffffff021916908373ffffffffffffffffffffffffffffffffffffffff160217905550600560085560016009553480156200005d57600080fd5b5060405162002b2838038062002b28833981810160405281019062000083919062000242565b80600073ffffffffffffffffffffffffffffffffffffffff168173ffffffffffffffffffffffffffffffffffffffff1603620000f95760006040517f1e4fbdf7000000000000000000000000000000000000000000000000000000008152600401620000f0919062000285565b60405180910390fd5b6200010a816200011260201b60201c565b5050620002a2565b6000600d60009054906101000a900473ffffffffffffffffffffffffffffffffffffffff16905081600d60006101000a81548173ffffffffffffffffffffffffffffffffffffffff021916908373ffffffffffffffffffffffffffffffffffffffff1602179055508173ffffffffffffffffffffffffffffffffffffffff168173ffffffffffffffffffffffffffffffffffffffff167f8be0079c531659141344cd1fd0a4f28419497f9722a3daafe3b4186f6b6457e060405160405180910390a35050565b600080fd5b600073ffffffffffffffffffffffffffffffffffffffff82169050919050565b60006200020a82620001dd565b9050919050565b6200021c81620001fd565b81146200022857600080fd5b50565b6000815190506200023c8162000211565b92915050565b6000602082840312156200025b576200025a620001d8565b5b60006200026b848285016200022b565b91505092915050565b6200027f81620001fd565b82525050565b60006020820190506200029c600083018462000274565b92915050565b61287680620002b26000396000f3fe608060405234801561001057600080fd5b506004361061014d5760003560e01c80637aea4f70116100c3578063af49318b1161007c578063af49318b146103c2578063b2af00b4146103de578063bb91f47c146103fa578063d5a3b54c1461042a578063f2fde38b14610446578063fdad0319146104625761014d565b80637aea4f70146102c85780638da5cb5b146102f857806390103cf014610316578063943df19d146103465780639531db1114610376578063a47a6187146103925761014d565b806338d836c21161011557806338d836c2146101f45780633bbc4d34146102245780636298eb5c146102545780636a326ab1146102725780636e42176c1461028e578063715018a6146102be5761014d565b806307d4cfda146101525780630b5cec951461016e5780632081f4c81461018a578063243a16fc146101ba5780632ffdb342146101d6575b600080fd5b61016c60048036038101906101679190611c7c565b610492565b005b61018860048036038101906101839190611ceb565b6104a2565b005b6101a4600480360381019061019f9190611d18565b6104b6565b6040516101b19190611dbc565b60405180910390f35b6101d460048036038101906101cf9190611dd7565b6104df565b005b6101de610650565b6040516101eb9190611e30565b60405180910390f35b61020e60048036038101906102099190611d18565b610656565b60405161021b9190611e5a565b60405180910390f35b61023e60048036038101906102399190611d18565b610693565b60405161024b9190611e30565b60405180910390f35b61025c6106b0565b6040516102699190611e30565b60405180910390f35b61028c60048036038101906102879190611ceb565b6106b6565b005b6102a860048036038101906102a39190611f16565b6106ca565b6040516102b59190611f6e565b60405180910390f35b6102c66106db565b005b6102e260048036038101906102dd9190611d18565b6106ef565b6040516102ef9190611fa4565b60405180910390f35b61030061073f565b60405161030d9190611e5a565b60405180910390f35b610330600480360381019061032b9190611feb565b610769565b60405161033d9190611f6e565b60405180910390f35b610360600480360381019061035b9190611d18565b6107d9565b60405161036d9190611fa4565b60405180910390f35b610390600480360381019061038b919061206e565b61082a565b005b6103ac60048036038101906103a79190611d18565b61083e565b6040516103b99190611f6e565b60405180910390f35b6103dc60048036038101906103d791906120c0565b61085b565b005b6103f860048036038101906103f3919061206e565b61093e565b005b610414600480360381019061040f9190611d18565b610952565b6040516104219190611fa4565b60405180910390f35b610444600480360381019061043f9190612113565b61097c565b005b610460600480360381019061045b9190611ceb565b610a6a565b005b61047c60048036038101906104779190611d18565b610af0565b6040516104899190611e5a565b60405180910390f35b61049d838383610b2d565b505050565b6104aa610c6d565b6104b381610cf4565b50565b600080600083815260200190815260200160002060009054906101000a900460ff169050919050565b81336001600083815260200190815260200160002060009054906101000a900473ffffffffffffffffffffffffffffffffffffffff1673ffffffffffffffffffffffffffffffffffffffff168173ffffffffffffffffffffffffffffffffffffffff1614610582576040517f08c379a0000000000000000000000000000000000000000000000000000000008152600401610579906121c3565b60405180910390fd5b61058b846106ef565b6105ca576040517f08c379a00000000000000000000000000000000000000000000000000000000081526004016105c19061222f565b60405180910390fd5b600660008086815260200190815260200160002060006101000a81548160ff02191690836006811115610600576105ff611d45565b5b021790555082843373ffffffffffffffffffffffffffffffffffffffff167f9c3956aca445d24a9b0e4e1052853a72f08f40e391c6e5cf444f2ab3be9c784660405160405180910390a450505050565b60085481565b60006001600083815260200190815260200160002060009054906101000a900473ffffffffffffffffffffffffffffffffffffffff169050919050565b600060046000838152602001908152602001600020549050919050565b60095481565b6106be610c6d565b6106c781610de0565b50565b600081805190602001209050919050565b6106e3610c6d565b6106ed6000610eef565b565b600080600681111561070457610703611d45565b5b60008084815260200190815260200160002060009054906101000a900460ff16600681111561073657610735611d45565b5b14159050919050565b6000600d60009054906101000a900473ffffffffffffffffffffffffffffffffffffffff16905090565b600061077485610952565b6107b3576040517f08c379a00000000000000000000000000000000000000000000000000000000081526004016107aa9061229b565b60405180910390fd5b60006107c0868685610fb5565b90506107cd8185876110fd565b80915050949350505050565b6000600360068111156107ef576107ee611d45565b5b60008084815260200190815260200160002060009054906101000a900460ff16600681111561082157610820611d45565b5b14159050919050565b610832610c6d565b61083b81611320565b50565b600060026000838152602001908152602001600020549050919050565b33828173ffffffffffffffffffffffffffffffffffffffff1661087d82610af0565b73ffffffffffffffffffffffffffffffffffffffff16146108d3576040517f08c379a00000000000000000000000000000000000000000000000000000000081526004016108ca90612307565b60405180910390fd5b84846002600083815260200190815260200160002054811461092a576040517f08c379a000000000000000000000000000000000000000000000000000000000815260040161092190612373565b60405180910390fd5b61093587878761136d565b50505050505050565b610946610c6d565b61094f81611405565b50565b60006007600083815260200190815260200160002060009054906101000a900460ff169050919050565b33828173ffffffffffffffffffffffffffffffffffffffff1661099e82610af0565b73ffffffffffffffffffffffffffffffffffffffff16146109f4576040517f08c379a00000000000000000000000000000000000000000000000000000000081526004016109eb90612307565b60405180910390fd5b848460026000838152602001908152602001600020548114610a4b576040517f08c379a0000000000000000000000000000000000000000000000000000000008152600401610a4290612373565b60405180910390fd5b610a578787600361136d565b610a61878661141a565b50505050505050565b610a72610c6d565b600073ffffffffffffffffffffffffffffffffffffffff168173ffffffffffffffffffffffffffffffffffffffff1603610ae45760006040517f1e4fbdf7000000000000000000000000000000000000000000000000000000008152600401610adb9190611e5a565b60405180910390fd5b610aed81610eef565b50565b60006006600083815260200190815260200160002060009054906101000a900473ffffffffffffffffffffffffffffffffffffffff169050919050565b3073ffffffffffffffffffffffffffffffffffffffff168273ffffffffffffffffffffffffffffffffffffffff1603610b9b576040517f08c379a0000000000000000000000000000000000000000000000000000000008152600401610b92906123df565b60405180910390fd5b60016007600085815260200190815260200160002060006101000a81548160ff021916908315150217905550816006600085815260200190815260200160002060006101000a81548173ffffffffffffffffffffffffffffffffffffffff021916908373ffffffffffffffffffffffffffffffffffffffff160217905550828273ffffffffffffffffffffffffffffffffffffffff167f7442b3c760b38d33876a54d8b8e41b062a93c35bf8ed7b7d74e5fe2b307e8bd683604051610c60919061246d565b60405180910390a3505050565b610c756115ad565b73ffffffffffffffffffffffffffffffffffffffff16610c9361073f565b73ffffffffffffffffffffffffffffffffffffffff1614610cf257610cb66115ad565b6040517f118cdaa7000000000000000000000000000000000000000000000000000000008152600401610ce99190611e5a565b60405180910390fd5b565b600073ffffffffffffffffffffffffffffffffffffffff168173ffffffffffffffffffffffffffffffffffffffff1614158015610d5d57503073ffffffffffffffffffffffffffffffffffffffff168173ffffffffffffffffffffffffffffffffffffffff1614155b610d9c576040517f08c379a0000000000000000000000000000000000000000000000000000000008152600401610d93906124db565b60405180910390fd5b80600b60006101000a81548173ffffffffffffffffffffffffffffffffffffffff021916908373ffffffffffffffffffffffffffffffffffffffff16021790555050565b600073ffffffffffffffffffffffffffffffffffffffff168173ffffffffffffffffffffffffffffffffffffffff1603610e46576040517fd92e233d00000000000000000000000000000000000000000000000000000000815260040160405180910390fd5b3073ffffffffffffffffffffffffffffffffffffffff168173ffffffffffffffffffffffffffffffffffffffff1603610eab576040517fe6c4247b00000000000000000000000000000000000000000000000000000000815260040160405180910390fd5b80600360006101000a81548173ffffffffffffffffffffffffffffffffffffffff021916908373ffffffffffffffffffffffffffffffffffffffff16021790555050565b6000600d60009054906101000a900473ffffffffffffffffffffffffffffffffffffffff16905081600d60006101000a81548173ffffffffffffffffffffffffffffffffffffffff021916908373ffffffffffffffffffffffffffffffffffffffff1602179055508173ffffffffffffffffffffffffffffffffffffffff168173ffffffffffffffffffffffffffffffffffffffff167f8be0079c531659141344cd1fd0a4f28419497f9722a3daafe3b4186f6b6457e060405160405180910390a35050565b60003073ffffffffffffffffffffffffffffffffffffffff168373ffffffffffffffffffffffffffffffffffffffff1603610fef57600080fd5b6000610ffb85846115b5565b9050600160008083815260200190815260200160002060006101000a81548160ff0219169083600681111561103357611032611d45565b5b0217905550836001600083815260200190815260200160002060006101000a81548173ffffffffffffffffffffffffffffffffffffffff021916908373ffffffffffffffffffffffffffffffffffffffff16021790555084600260008381526020019081526020016000208190555084818573ffffffffffffffffffffffffffffffffffffffff167f7dcf34a6c01dbc4ca140535db5a9c4097e978278988ce11077dfd823c4ecb87c866040516110ea919061246d565b60405180910390a4809150509392505050565b82600080600681111561111357611112611d45565b5b6005600084815260200190815260200160002060009054906101000a900460ff16600681111561114657611145611d45565b5b14611186576040517f08c379a000000000000000000000000000000000000000000000000000000000815260040161117d90612547565b60405180910390fd5b60018410156111c1576040517f1f2a200500000000000000000000000000000000000000000000000000000000815260040160405180910390fd5b3073ffffffffffffffffffffffffffffffffffffffff16600360009054906101000a900473ffffffffffffffffffffffffffffffffffffffff1673ffffffffffffffffffffffffffffffffffffffff1603611248576040517fe6c4247b00000000000000000000000000000000000000000000000000000000815260040160405180910390fd5b611276600360009054906101000a900473ffffffffffffffffffffffffffffffffffffffff168430876115e8565b83600460008781526020019081526020016000208190555060016005600087815260200190815260200160002060006101000a81548160ff021916908360068111156112c5576112c4611d45565b5b02179055508273ffffffffffffffffffffffffffffffffffffffff16857fa7349eaff0f04bf9c69fe64b5e86e41ee267852570ae1acdae697c6653e95a02866040516113119190611e30565b60405180910390a35050505050565b60008111611363576040517f08c379a000000000000000000000000000000000000000000000000000000000815260040161135a906125b3565b60405180910390fd5b8060098190555050565b8282600260008381526020019081526020016000205481146113c4576040517f08c379a00000000000000000000000000000000000000000000000000000000081526004016113bb90612373565b60405180910390fd5b8260008087815260200190815260200160002060006101000a81548160ff021916908360068111156113f9576113f8611d45565b5b02179055505050505050565b80426114119190612602565b600a8190555050565b8160018060068111156114305761142f611d45565b5b6005600084815260200190815260200160002060009054906101000a900460ff16600681111561146357611462611d45565b5b146114a3576040517f08c379a000000000000000000000000000000000000000000000000000000000815260040161149a90612547565b60405180910390fd5b82600460008681526020019081526020016000205410156114f0576040517f5945ea5600000000000000000000000000000000000000000000000000000000815260040160405180910390fd5b600580600086815260200190815260200160002060006101000a81548160ff0219169083600681111561152657611525611d45565b5b0217905550611558600360009054906101000a900473ffffffffffffffffffffffffffffffffffffffff16338561166a565b3373ffffffffffffffffffffffffffffffffffffffff16847f45652f5704babe8631839774cd638452bb18d9995de3dc566141b5bbdce42f458560405161159f9190611e30565b60405180910390a350505050565b600033905090565b600081836040516020016115ca929190612693565b60405160208183030381529060405280519060200120905092915050565b611664848573ffffffffffffffffffffffffffffffffffffffff166323b872dd86868660405160240161161d939291906126bb565b604051602081830303815290604052915060e01b6020820180517bffffffffffffffffffffffffffffffffffffffffffffffffffffffff8381831617835250505050611779565b50505050565b60008373ffffffffffffffffffffffffffffffffffffffff1663095ea7b3848460405160240161169b9291906126f2565b604051602081830303815290604052915060e01b6020820180517bffffffffffffffffffffffffffffffffffffffffffffffffffffffff838183161783525050505090506116e98482611810565b61177357611768848573ffffffffffffffffffffffffffffffffffffffff1663095ea7b3866000604051602401611721929190612760565b604051602081830303815290604052915060e01b6020820180517bffffffffffffffffffffffffffffffffffffffffffffffffffffffff8381831617835250505050611779565b6117728482611779565b5b50505050565b60006117a4828473ffffffffffffffffffffffffffffffffffffffff166118d790919063ffffffff16565b905060008151141580156117c95750808060200190518101906117c791906127b5565b155b1561180b57826040517f5274afe70000000000000000000000000000000000000000000000000000000081526004016118029190611e5a565b60405180910390fd5b505050565b60008060008473ffffffffffffffffffffffffffffffffffffffff168460405161183a9190612829565b6000604051808303816000865af19150503d8060008114611877576040519150601f19603f3d011682016040523d82523d6000602084013e61187c565b606091505b50915091508180156118aa57506000815114806118a95750808060200190518101906118a891906127b5565b5b5b80156118cd575060008573ffffffffffffffffffffffffffffffffffffffff163b115b9250505092915050565b60606118e5838360006118ed565b905092915050565b60608147101561193457306040517fcd78605900000000000000000000000000000000000000000000000000000000815260040161192b9190611e5a565b60405180910390fd5b6000808573ffffffffffffffffffffffffffffffffffffffff16848660405161195d9190612829565b60006040518083038185875af1925050503d806000811461199a576040519150601f19603f3d011682016040523d82523d6000602084013e61199f565b606091505b50915091506119af8683836119ba565b925050509392505050565b6060826119cf576119ca82611a49565b611a41565b600082511480156119f7575060008473ffffffffffffffffffffffffffffffffffffffff163b145b15611a3957836040517f9996b315000000000000000000000000000000000000000000000000000000008152600401611a309190611e5a565b60405180910390fd5b819050611a42565b5b9392505050565b600081511115611a5c5780518082602001fd5b6040517f1425ea4200000000000000000000000000000000000000000000000000000000815260040160405180910390fd5b6000604051905090565b600080fd5b600080fd5b6000819050919050565b611ab581611aa2565b8114611ac057600080fd5b50565b600081359050611ad281611aac565b92915050565b600073ffffffffffffffffffffffffffffffffffffffff82169050919050565b6000611b0382611ad8565b9050919050565b611b1381611af8565b8114611b1e57600080fd5b50565b600081359050611b3081611b0a565b92915050565b600080fd5b600080fd5b6000601f19601f8301169050919050565b7f4e487b7100000000000000000000000000000000000000000000000000000000600052604160045260246000fd5b611b8982611b40565b810181811067ffffffffffffffff82111715611ba857611ba7611b51565b5b80604052505050565b6000611bbb611a8e565b9050611bc78282611b80565b919050565b600067ffffffffffffffff821115611be757611be6611b51565b5b611bf082611b40565b9050602081019050919050565b82818337600083830152505050565b6000611c1f611c1a84611bcc565b611bb1565b905082815260208101848484011115611c3b57611c3a611b3b565b5b611c46848285611bfd565b509392505050565b600082601f830112611c6357611c62611b36565b5b8135611c73848260208601611c0c565b91505092915050565b600080600060608486031215611c9557611c94611a98565b5b6000611ca386828701611ac3565b9350506020611cb486828701611b21565b925050604084013567ffffffffffffffff811115611cd557611cd4611a9d565b5b611ce186828701611c4e565b9150509250925092565b600060208284031215611d0157611d00611a98565b5b6000611d0f84828501611b21565b91505092915050565b600060208284031215611d2e57611d2d611a98565b5b6000611d3c84828501611ac3565b91505092915050565b7f4e487b7100000000000000000000000000000000000000000000000000000000600052602160045260246000fd5b60078110611d8557611d84611d45565b5b50565b6000819050611d9682611d74565b919050565b6000611da682611d88565b9050919050565b611db681611d9b565b82525050565b6000602082019050611dd16000830184611dad565b92915050565b60008060408385031215611dee57611ded611a98565b5b6000611dfc85828601611ac3565b9250506020611e0d85828601611ac3565b9150509250929050565b6000819050919050565b611e2a81611e17565b82525050565b6000602082019050611e456000830184611e21565b92915050565b611e5481611af8565b82525050565b6000602082019050611e6f6000830184611e4b565b92915050565b600067ffffffffffffffff821115611e9057611e8f611b51565b5b611e9982611b40565b9050602081019050919050565b6000611eb9611eb484611e75565b611bb1565b905082815260208101848484011115611ed557611ed4611b3b565b5b611ee0848285611bfd565b509392505050565b600082601f830112611efd57611efc611b36565b5b8135611f0d848260208601611ea6565b91505092915050565b600060208284031215611f2c57611f2b611a98565b5b600082013567ffffffffffffffff811115611f4a57611f49611a9d565b5b611f5684828501611ee8565b91505092915050565b611f6881611aa2565b82525050565b6000602082019050611f836000830184611f5f565b92915050565b60008115159050919050565b611f9e81611f89565b82525050565b6000602082019050611fb96000830184611f95565b92915050565b611fc881611e17565b8114611fd357600080fd5b50565b600081359050611fe581611fbf565b92915050565b6000806000806080858703121561200557612004611a98565b5b600061201387828801611ac3565b945050602061202487828801611b21565b935050604061203587828801611fd6565b925050606085013567ffffffffffffffff81111561205657612055611a9d565b5b61206287828801611c4e565b91505092959194509250565b60006020828403121561208457612083611a98565b5b600061209284828501611fd6565b91505092915050565b600781106120a857600080fd5b50565b6000813590506120ba8161209b565b92915050565b6000806000606084860312156120d9576120d8611a98565b5b60006120e786828701611ac3565b93505060206120f886828701611ac3565b9250506040612109868287016120ab565b9150509250925092565b60008060006060848603121561212c5761212b611a98565b5b600061213a86828701611ac3565b935050602061214b86828701611ac3565b925050604061215c86828701611fd6565b9150509250925092565b600082825260208201905092915050565b7f4e6f74207072696e74206f776e65720000000000000000000000000000000000600082015250565b60006121ad600f83612166565b91506121b882612177565b602082019050919050565b600060208201905081810360008301526121dc816121a0565b9050919050565b7f496e76616c6964207072696e7420686173680000000000000000000000000000600082015250565b6000612219601283612166565b9150612224826121e3565b602082019050919050565b600060208201905081810360008301526122488161220c565b9050919050565b7f496e76616c6964207072696e7465720000000000000000000000000000000000600082015250565b6000612285600f83612166565b91506122908261224f565b602082019050919050565b600060208201905081810360008301526122b481612278565b9050919050565b7f4f6e6c79207072696e746572206f776e65720000000000000000000000000000600082015250565b60006122f1601283612166565b91506122fc826122bb565b602082019050919050565b60006020820190508181036000830152612320816122e4565b9050919050565b7f4e6f74207072696e746572206f776e6572000000000000000000000000000000600082015250565b600061235d601183612166565b915061236882612327565b602082019050919050565b6000602082019050818103600083015261238c81612350565b9050919050565b7f496e76616c6964206f776e657200000000000000000000000000000000000000600082015250565b60006123c9600d83612166565b91506123d482612393565b602082019050919050565b600060208201905081810360008301526123f8816123bc565b9050919050565b600081519050919050565b60005b8381101561242857808201518184015260208101905061240d565b60008484015250505050565b600061243f826123ff565b6124498185612166565b935061245981856020860161240a565b61246281611b40565b840191505092915050565b600060208201905081810360008301526124878184612434565b905092915050565b7f496e76616c69642072656465656d206164647265737300000000000000000000600082015250565b60006124c5601683612166565b91506124d08261248f565b602082019050919050565b600060208201905081810360008301526124f4816124b8565b9050919050565b7f496e76616c6964207061796d656e7420616374696f6e00000000000000000000600082015250565b6000612531601683612166565b915061253c826124fb565b602082019050919050565b6000602082019050818103600083015261256081612524565b9050919050565b7f56616c7565206d7573742062652067726561746572207468616e207a65726f00600082015250565b600061259d601f83612166565b91506125a882612567565b602082019050919050565b600060208201905081810360008301526125cc81612590565b9050919050565b7f4e487b7100000000000000000000000000000000000000000000000000000000600052601160045260246000fd5b600061260d82611e17565b915061261883611e17565b92508282019050808211156126305761262f6125d3565b5b92915050565b600081905092915050565b600061264c826123ff565b6126568185612636565b935061266681856020860161240a565b80840191505092915050565b6000819050919050565b61268d61268882611aa2565b612672565b82525050565b600061269f8285612641565b91506126ab828461267c565b6020820191508190509392505050565b60006060820190506126d06000830186611e4b565b6126dd6020830185611e4b565b6126ea6040830184611e21565b949350505050565b60006040820190506127076000830185611e4b565b6127146020830184611e21565b9392505050565b6000819050919050565b6000819050919050565b600061274a6127456127408461271b565b612725565b611e17565b9050919050565b61275a8161272f565b82525050565b60006040820190506127756000830185611e4b565b6127826020830184612751565b9392505050565b61279281611f89565b811461279d57600080fd5b50565b6000815190506127af81612789565b92915050565b6000602082840312156127cb576127ca611a98565b5b60006127d9848285016127a0565b91505092915050565b600081519050919050565b600081905092915050565b6000612803826127e2565b61280d81856127ed565b935061281d81856020860161240a565b80840191505092915050565b600061283582846127f8565b91508190509291505056fea2646970667358221220592caeb515c23176436f31886c88877ad3a486f52484aa3d1d62d210af1d44a664736f6c63430008140033",
  "linkReferences": {},
  "deployedLinkReferences": {}
}