{
  "_format": "hh-sol-artifact-1",
  "contractName": "JobManager",
  "sourceName": "contracts/JobManager.sol",
  "abi": [
    {
      "anonymous": false,
      "inputs": [
        {
          "indexed": true,
          "internalType": "address",
          "name": "owner",
          "type": "address"
        },
        {
          "indexed": true,
          "internalType": "bytes32",
          "name": "printHash",
          "type": "bytes32"
        },
        {
          "indexed": true,
          "internalType": "bytes32",
          "name": "printerHash",
          "type": "bytes32"
        },
        {
          "indexed": false,
          "internalType": "string",
          "name": "docHash",
          "type": "string"
        }
      ],
      "name": "JobIssued",
      "type": "event"
    },
    {
      "anonymous": false,
      "inputs": [
        {
          "indexed": true,
          "internalType": "bytes32",
          "name": "printHash",
          "type": "bytes32"
        },
        {
          "indexed": true,
          "internalType": "bytes32",
          "name": "printerHash",
          "type": "bytes32"
        }
      ],
      "name": "PrintCancelled",
      "type": "event"
    },
    {
      "anonymous": false,
      "inputs": [
        {
          "indexed": true,
          "internalType": "address",
          "name": "owner",
          "type": "address"
        },
        {
          "indexed": true,
          "internalType": "bytes32",
          "name": "printHash",
          "type": "bytes32"
        },
        {
          "indexed": true,
          "internalType": "bytes32",
          "name": "printerHash",
          "type": "bytes32"
        }
      ],
      "name": "RequestPrintCancel",
      "type": "event"
    },
    {
      "inputs": [
        {
          "internalType": "bytes32",
          "name": "printHash",
          "type": "bytes32"
        }
      ],
      "name": "getJobStatus",
      "outputs": [
        {
          "internalType": "enum JobManager.JobStatus",
          "name": "",
          "type": "uint8"
        }
      ],
      "stateMutability": "view",
      "type": "function"
    },
    {
      "inputs": [
        {
          "internalType": "bytes32",
          "name": "hash",
          "type": "bytes32"
        }
      ],
      "name": "getPrintHashOwner",
      "outputs": [
        {
          "internalType": "address",
          "name": "",
          "type": "address"
        }
      ],
      "stateMutability": "view",
      "type": "function"
    },
    {
      "inputs": [
        {
          "internalType": "bytes32",
          "name": "hash",
          "type": "bytes32"
        }
      ],
      "name": "getPrintHashPrinter",
      "outputs": [
        {
          "internalType": "bytes32",
          "name": "",
          "type": "bytes32"
        }
      ],
      "stateMutability": "view",
      "type": "function"
    },
    {
      "inputs": [
        {
          "internalType": "bytes32",
          "name": "printHash",
          "type": "bytes32"
        }
      ],
      "name": "isPrintJob",
      "outputs": [
        {
          "internalType": "bool",
          "name": "",
          "type": "bool"
        }
      ],
      "stateMutability": "view",
      "type": "function"
    },
    {
      "inputs": [
        {
          "internalType": "bytes32",
          "name": "printHash",
          "type": "bytes32"
        }
      ],
      "name": "isPrinted",
      "outputs": [
        {
          "internalType": "bool",
          "name": "",
          "type": "bool"
        }
      ],
      "stateMutability": "view",
      "type": "function"
    },
    {
      "inputs": [
        {
          "internalType": "bytes32",
          "name": "printHash",
          "type": "bytes32"
        },
        {
          "internalType": "bytes32",
          "name": "printerHash",
          "type": "bytes32"
        }
      ],
      "name": "userRequestPrintCancel",
      "outputs": [],
      "stateMutability": "nonpayable",
      "type": "function"
    }
  ],
  "bytecode": "0x608060405234801561001057600080fd5b5061071d806100206000396000f3fe608060405234801561001057600080fd5b50600436106100625760003560e01c80632081f4c814610067578063243a16fc1461009757806338d836c2146100b35780637aea4f70146100e3578063943df19d14610113578063a47a618714610143575b600080fd5b610081600480360381019061007c9190610443565b610173565b60405161008e91906104e7565b60405180910390f35b6100b160048036038101906100ac9190610502565b61019c565b005b6100cd60048036038101906100c89190610443565b61030d565b6040516100da9190610583565b60405180910390f35b6100fd60048036038101906100f89190610443565b61034a565b60405161010a91906105b9565b60405180910390f35b61012d60048036038101906101289190610443565b61039a565b60405161013a91906105b9565b60405180910390f35b61015d60048036038101906101589190610443565b6103eb565b60405161016a91906105e3565b60405180910390f35b600080600083815260200190815260200160002060009054906101000a900460ff169050919050565b81336001600083815260200190815260200160002060009054906101000a900473ffffffffffffffffffffffffffffffffffffffff1673ffffffffffffffffffffffffffffffffffffffff168173ffffffffffffffffffffffffffffffffffffffff161461023f576040517f08c379a00000000000000000000000000000000000000000000000000000000081526004016102369061065b565b60405180910390fd5b6102488461034a565b610287576040517f08c379a000000000000000000000000000000000000000000000000000000000815260040161027e906106c7565b60405180910390fd5b600660008086815260200190815260200160002060006101000a81548160ff021916908360068111156102bd576102bc610470565b5b021790555082843373ffffffffffffffffffffffffffffffffffffffff167f9c3956aca445d24a9b0e4e1052853a72f08f40e391c6e5cf444f2ab3be9c784660405160405180910390a450505050565b60006001600083815260200190815260200160002060009054906101000a900473ffffffffffffffffffffffffffffffffffffffff169050919050565b600080600681111561035f5761035e610470565b5b60008084815260200190815260200160002060009054906101000a900460ff16600681111561039157610390610470565b5b14159050919050565b6000600360068111156103b0576103af610470565b5b60008084815260200190815260200160002060009054906101000a900460ff1660068111156103e2576103e1610470565b5b14159050919050565b600060026000838152602001908152602001600020549050919050565b600080fd5b6000819050919050565b6104208161040d565b811461042b57600080fd5b50565b60008135905061043d81610417565b92915050565b60006020828403121561045957610458610408565b5b60006104678482850161042e565b91505092915050565b7f4e487b7100000000000000000000000000000000000000000000000000000000600052602160045260246000fd5b600781106104b0576104af610470565b5b50565b60008190506104c18261049f565b919050565b60006104d1826104b3565b9050919050565b6104e1816104c6565b82525050565b60006020820190506104fc60008301846104d8565b92915050565b6000806040838503121561051957610518610408565b5b60006105278582860161042e565b92505060206105388582860161042e565b9150509250929050565b600073ffffffffffffffffffffffffffffffffffffffff82169050919050565b600061056d82610542565b9050919050565b61057d81610562565b82525050565b60006020820190506105986000830184610574565b92915050565b60008115159050919050565b6105b38161059e565b82525050565b60006020820190506105ce60008301846105aa565b92915050565b6105dd8161040d565b82525050565b60006020820190506105f860008301846105d4565b92915050565b600082825260208201905092915050565b7f4e6f74207072696e74206f776e65720000000000000000000000000000000000600082015250565b6000610645600f836105fe565b91506106508261060f565b602082019050919050565b6000602082019050818103600083015261067481610638565b9050919050565b7f496e76616c6964207072696e7420686173680000000000000000000000000000600082015250565b60006106b16012836105fe565b91506106bc8261067b565b602082019050919050565b600060208201905081810360008301526106e0816106a4565b905091905056fea2646970667358221220bd93bac6a770d1ca0b1041d3ad2b75f24d88eeea581b59c7b0010ce4eb9176a264736f6c63430008140033",
  "linkReferences": {},
  "deployedLinkReferences": {}
}