{
  "_format": "hh-sol-artifact-1",
  "contractName": "LoyaltyManager",
  "sourceName": "contracts/LoyaltyManager.sol",
  "abi": [
    {
      "inputs": [],
      "name": "printPoint",
      "outputs": [
        {
          "internalType": "uint256",
          "name": "",
          "type": "uint256"
        }
      ],
      "stateMutability": "view",
      "type": "function"
    },
    {
      "inputs": [],
      "name": "redeemPeriod",
      "outputs": [
        {
          "internalType": "uint256",
          "name": "",
          "type": "uint256"
        }
      ],
      "stateMutability": "view",
      "type": "function"
    },
    {
      "inputs": [],
      "name": "redeemToken",
      "outputs": [
        {
          "internalType": "address",
          "name": "",
          "type": "address"
        }
      ],
      "stateMutability": "view",
      "type": "function"
    },
    {
      "inputs": [],
      "name": "valuePerPoint",
      "outputs": [
        {
          "internalType": "uint256",
          "name": "",
          "type": "uint256"
        }
      ],
      "stateMutability": "view",
      "type": "function"
    }
  ],
  "bytecode": "0x608060405260056000556001805534801561001957600080fd5b506101c7806100296000396000f3fe608060405234801561001057600080fd5b506004361061004c5760003560e01c80632f310bad146100515780632ffdb3421461006f57806340a233a61461008d5780636298eb5c146100ab575b600080fd5b6100596100c9565b6040516100669190610142565b60405180910390f35b6100776100ef565b6040516100849190610176565b60405180910390f35b6100956100f5565b6040516100a29190610176565b60405180910390f35b6100b36100fb565b6040516100c09190610176565b60405180910390f35b600360009054906101000a900473ffffffffffffffffffffffffffffffffffffffff1681565b60005481565b60025481565b60015481565b600073ffffffffffffffffffffffffffffffffffffffff82169050919050565b600061012c82610101565b9050919050565b61013c81610121565b82525050565b60006020820190506101576000830184610133565b92915050565b6000819050919050565b6101708161015d565b82525050565b600060208201905061018b6000830184610167565b9291505056fea26469706673582212208765015e9ef720e591e9bbeb2e6cc6e966016ad8516ec42773f90e44d9f1654d64736f6c63430008140033",
  "linkReferences": {},
  "deployedLinkReferences": {}
}