{
  "_format": "hh-sol-artifact-1",
  "contractName": "XPrint",
  "sourceName": "contracts/Xprint.sol",
  "abi": [
    {
      "inputs": [
        {
          "internalType": "address",
          "name": "initialOwner",
          "type": "address"
        }
      ],
      "stateMutability": "nonpayable",
      "type": "constructor"
    },
    {
      "inputs": [
        {
          "internalType": "address",
          "name": "target",
          "type": "address"
        }
      ],
      "name": "AddressEmptyCode",
      "type": "error"
    },
    {
      "inputs": [
        {
          "internalType": "address",
          "name": "account",
          "type": "address"
        }
      ],
      "name": "AddressInsufficientBalance",
      "type": "error"
    },
    {
      "inputs": [],
      "name": "FailedInnerCall",
      "type": "error"
    },
    {
      "inputs": [],
      "name": "InsufficientAmount",
      "type": "error"
    },
    {
      "inputs": [],
      "name": "InvalidAddress",
      "type": "error"
    },
    {
      "inputs": [
        {
          "internalType": "address",
          "name": "owner",
          "type": "address"
        }
      ],
      "name": "OwnableInvalidOwner",
      "type": "error"
    },
    {
      "inputs": [
        {
          "internalType": "address",
          "name": "account",
          "type": "address"
        }
      ],
      "name": "OwnableUnauthorizedAccount",
      "type": "error"
    },
    {
      "inputs": [
        {
          "internalType": "address",
          "name": "token",
          "type": "address"
        }
      ],
      "name": "SafeERC20FailedOperation",
      "type": "error"
    },
    {
      "inputs": [],
      "name": "ZeroAddress",
      "type": "error"
    },
    {
      "inputs": [],
      "name": "ZeroAmount",
      "type": "error"
    },
    {
      "anonymous": false,
      "inputs": [
        {
          "indexed": true,
          "internalType": "address",
          "name": "owner",
          "type": "address"
        },
        {
          "indexed": true,
          "internalType": "bytes32",
          "name": "printHash",
          "type": "bytes32"
        },
        {
          "indexed": true,
          "internalType": "bytes32",
          "name": "printerHash",
          "type": "bytes32"
        },
        {
          "indexed": false,
          "internalType": "string",
          "name": "docHash",
          "type": "string"
        }
      ],
      "name": "JobIssued",
      "type": "event"
    },
    {
      "anonymous": false,
      "inputs": [
        {
          "indexed": true,
          "internalType": "address",
          "name": "previousOwner",
          "type": "address"
        },
        {
          "indexed": true,
          "internalType": "address",
          "name": "newOwner",
          "type": "address"
        }
      ],
      "name": "OwnershipTransferred",
      "type": "event"
    },
    {
      "anonymous": false,
      "inputs": [
        {
          "indexed": true,
          "internalType": "bytes32",
          "name": "printHash",
          "type": "bytes32"
        },
        {
          "indexed": true,
          "internalType": "address",
          "name": "owner",
          "type": "address"
        },
        {
          "indexed": false,
          "internalType": "uint256",
          "name": "amount",
          "type": "uint256"
        }
      ],
      "name": "PaymentLocked",
      "type": "event"
    },
    {
      "anonymous": false,
      "inputs": [
        {
          "indexed": true,
          "internalType": "bytes32",
          "name": "printHash",
          "type": "bytes32"
        },
        {
          "indexed": true,
          "internalType": "bytes32",
          "name": "printerHash",
          "type": "bytes32"
        }
      ],
      "name": "PrintCancelled",
      "type": "event"
    },
    {
      "anonymous": false,
      "inputs": [
        {
          "indexed": true,
          "internalType": "address",
          "name": "owner",
          "type": "address"
        },
        {
          "indexed": true,
          "internalType": "bytes32",
          "name": "printerHash",
          "type": "bytes32"
        },
        {
          "indexed": false,
          "internalType": "string",
          "name": "cid",
          "type": "string"
        }
      ],
      "name": "PrinterCreated",
      "type": "event"
    },
    {
      "anonymous": false,
      "inputs": [
        {
          "indexed": true,
          "internalType": "address",
          "name": "owner",
          "type": "address"
        },
        {
          "indexed": true,
          "internalType": "bytes32",
          "name": "printerHash",
          "type": "bytes32"
        }
      ],
      "name": "PrinterRemoved",
      "type": "event"
    },
    {
      "anonymous": false,
      "inputs": [
        {
          "indexed": true,
          "internalType": "bytes32",
          "name": "printHash",
          "type": "bytes32"
        },
        {
          "indexed": true,
          "internalType": "address",
          "name": "owner",
          "type": "address"
        },
        {
          "indexed": false,
          "internalType": "uint256",
          "name": "amount",
          "type": "uint256"
        }
      ],
      "name": "RefundRequested",
      "type": "event"
    },
    {
      "anonymous": false,
      "inputs": [
        {
          "indexed": true,
          "internalType": "address",
          "name": "owner",
          "type": "address"
        },
        {
          "indexed": true,
          "internalType": "bytes32",
          "name": "printHash",
          "type": "bytes32"
        },
        {
          "indexed": true,
          "internalType": "bytes32",
          "name": "printerHash",
          "type": "bytes32"
        }
      ],
      "name": "RequestPrintCancel",
      "type": "event"
    },
    {
      "inputs": [
        {
          "internalType": "bytes32",
          "name": "printHash",
          "type": "bytes32"
        }
      ],
      "name": "getJobStatus",
      "outputs": [
        {
          "internalType": "enum JobManager.JobStatus",
          "name": "",
          "type": "uint8"
        }
      ],
      "stateMutability": "view",
      "type": "function"
    },
    {
      "inputs": [
        {
          "internalType": "bytes32",
          "name": "printHash",
          "type": "bytes32"
        }
      ],
      "name": "getPrintBalance",
      "outputs": [
        {
          "internalType": "uint256",
          "name": "",
          "type": "uint256"
        }
      ],
      "stateMutability": "view",
      "type": "function"
    },
    {
      "inputs": [
        {
          "internalType": "bytes32",
          "name": "hash",
          "type": "bytes32"
        }
      ],
      "name": "getPrintHashOwner",
      "outputs": [
        {
          "internalType": "address",
          "name": "",
          "type": "address"
        }
      ],
      "stateMutability": "view",
      "type": "function"
    },
    {
      "inputs": [
        {
          "internalType": "bytes32",
          "name": "hash",
          "type": "bytes32"
        }
      ],
      "name": "getPrintHashPrinter",
      "outputs": [
        {
          "internalType": "bytes32",
          "name": "",
          "type": "bytes32"
        }
      ],
      "stateMutability": "view",
      "type": "function"
    },
    {
      "inputs": [
        {
          "internalType": "bytes32",
          "name": "printerHash",
          "type": "bytes32"
        }
      ],
      "name": "getPrinterOwner",
      "outputs": [
        {
          "internalType": "address",
          "name": "",
          "type": "address"
        }
      ],
      "stateMutability": "view",
      "type": "function"
    },
    {
      "inputs": [
        {
          "internalType": "bytes",
          "name": "printerDetails",
          "type": "bytes"
        }
      ],
      "name": "getPrinterhash",
      "outputs": [
        {
          "internalType": "bytes32",
          "name": "",
          "type": "bytes32"
        }
      ],
      "stateMutability": "pure",
      "type": "function"
    },
    {
      "inputs": [
        {
          "internalType": "bytes32",
          "name": "printHash",
          "type": "bytes32"
        }
      ],
      "name": "isPrintJob",
      "outputs": [
        {
          "internalType": "bool",
          "name": "",
          "type": "bool"
        }
      ],
      "stateMutability": "view",
      "type": "function"
    },
    {
      "inputs": [
        {
          "internalType": "bytes32",
          "name": "printHash",
          "type": "bytes32"
        }
      ],
      "name": "isPrinted",
      "outputs": [
        {
          "internalType": "bool",
          "name": "",
          "type": "bool"
        }
      ],
      "stateMutability": "view",
      "type": "function"
    },
    {
      "inputs": [
        {
          "internalType": "bytes32",
          "name": "printerHash",
          "type": "bytes32"
        }
      ],
      "name": "isPrinter",
      "outputs": [
        {
          "internalType": "bool",
          "name": "",
          "type": "bool"
        }
      ],
      "stateMutability": "view",
      "type": "function"
    },
    {
      "inputs": [
        {
          "internalType": "bytes32",
          "name": "printerHash",
          "type": "bytes32"
        },
        {
          "internalType": "address",
          "name": "owner",
          "type": "address"
        },
        {
          "internalType": "uint256",
          "name": "amount",
          "type": "uint256"
        },
        {
          "internalType": "string",
          "name": "docCID",
          "type": "string"
        }
      ],
      "name": "issuePrint",
      "outputs": [
        {
          "internalType": "bytes32",
          "name": "",
          "type": "bytes32"
        }
      ],
      "stateMutability": "nonpayable",
      "type": "function"
    },
    {
      "inputs": [
        {
          "internalType": "bytes32",
          "name": "printHash",
          "type": "bytes32"
        },
        {
          "internalType": "bytes32",
          "name": "printerHash",
          "type": "bytes32"
        },
        {
          "internalType": "uint256",
          "name": "amount",
          "type": "uint256"
        }
      ],
      "name": "markPrinted",
      "outputs": [],
      "stateMutability": "nonpayable",
      "type": "function"
    },
    {
      "inputs": [],
      "name": "owner",
      "outputs": [
        {
          "internalType": "address",
          "name": "",
          "type": "address"
        }
      ],
      "stateMutability": "view",
      "type": "function"
    },
    {
      "inputs": [
        {
          "internalType": "bytes32",
          "name": "printHash",
          "type": "bytes32"
        }
      ],
      "name": "paymentStatus",
      "outputs": [
        {
          "internalType": "enum PaymentManager.PaymentStatus",
          "name": "",
          "type": "uint8"
        }
      ],
      "stateMutability": "view",
      "type": "function"
    },
    {
      "inputs": [],
      "name": "paymentToken",
      "outputs": [
        {
          "internalType": "address",
          "name": "",
          "type": "address"
        }
      ],
      "stateMutability": "view",
      "type": "function"
    },
    {
      "inputs": [],
      "name": "printPoint",
      "outputs": [
        {
          "internalType": "uint256",
          "name": "",
          "type": "uint256"
        }
      ],
      "stateMutability": "view",
      "type": "function"
    },
    {
      "inputs": [],
      "name": "redeemPeriod",
      "outputs": [
        {
          "internalType": "uint256",
          "name": "",
          "type": "uint256"
        }
      ],
      "stateMutability": "view",
      "type": "function"
    },
    {
      "inputs": [],
      "name": "redeemToken",
      "outputs": [
        {
          "internalType": "address",
          "name": "",
          "type": "address"
        }
      ],
      "stateMutability": "view",
      "type": "function"
    },
    {
      "inputs": [
        {
          "internalType": "bytes32",
          "name": "printerHash",
          "type": "bytes32"
        },
        {
          "internalType": "address",
          "name": "owner",
          "type": "address"
        },
        {
          "internalType": "string",
          "name": "cid",
          "type": "string"
        }
      ],
      "name": "registerPrinter",
      "outputs": [],
      "stateMutability": "nonpayable",
      "type": "function"
    },
    {
      "inputs": [],
      "name": "renounceOwnership",
      "outputs": [],
      "stateMutability": "nonpayable",
      "type": "function"
    },
    {
      "inputs": [
        {
          "internalType": "address",
          "name": "token_",
          "type": "address"
        }
      ],
      "name": "setPaymentToken",
      "outputs": [],
      "stateMutability": "nonpayable",
      "type": "function"
    },
    {
      "inputs": [
        {
          "internalType": "uint256",
          "name": "point",
          "type": "uint256"
        }
      ],
      "name": "setPrintPoint",
      "outputs": [],
      "stateMutability": "nonpayable",
      "type": "function"
    },
    {
      "inputs": [
        {
          "internalType": "address",
          "name": "token",
          "type": "address"
        }
      ],
      "name": "setRedeemToken",
      "outputs": [],
      "stateMutability": "nonpayable",
      "type": "function"
    },
    {
      "inputs": [
        {
          "internalType": "uint256",
          "name": "value",
          "type": "uint256"
        }
      ],
      "name": "setValuePerPoint",
      "outputs": [],
      "stateMutability": "nonpayable",
      "type": "function"
    },
    {
      "inputs": [
        {
          "internalType": "address",
          "name": "newOwner",
          "type": "address"
        }
      ],
      "name": "transferOwnership",
      "outputs": [],
      "stateMutability": "nonpayable",
      "type": "function"
    },
    {
      "inputs": [
        {
          "internalType": "bytes32",
          "name": "printHash",
          "type": "bytes32"
        },
        {
          "internalType": "bytes32",
          "name": "printerHash",
          "type": "bytes32"
        },
        {
          "internalType": "enum JobManager.JobStatus",
          "name": "status",
          "type": "uint8"
        }
      ],
      "name": "updateJobStatus",
      "outputs": [],
      "stateMutability": "nonpayable",
      "type": "function"
    },
    {
      "inputs": [
        {
          "internalType": "bytes32",
          "name": "printHash",
          "type": "bytes32"
        },
        {
          "internalType": "bytes32",
          "name": "printerHash",
          "type": "bytes32"
        }
      ],
      "name": "userRequestPrintCancel",
      "outputs": [],
      "stateMutability": "nonpayable",
      "type": "function"
    },
    {
      "inputs": [],
      "name": "valuePerPoint",
      "outputs": [
        {
          "internalType": "uint256",
          "name": "",
          "type": "uint256"
        }
      ],
      "stateMutability": "view",
      "type": "function"
    }
  ],
  "bytecode": "0x60806040526000600360006101000a81548173ffffffffffffffffffffffffffffffffffffffff021916908373ffffffffffffffffffffffffffffffffffffffff160217905550600560085560016009553480156200005d57600080fd5b5060405162002cf138038062002cf1833981810160405281019062000083919062000242565b80600073ffffffffffffffffffffffffffffffffffffffff168173ffffffffffffffffffffffffffffffffffffffff1603620000f95760006040517f1e4fbdf7000000000000000000000000000000000000000000000000000000008152600401620000f0919062000285565b60405180910390fd5b6200010a816200011260201b60201c565b5050620002a2565b6000600d60009054906101000a900473ffffffffffffffffffffffffffffffffffffffff16905081600d60006101000a81548173ffffffffffffffffffffffffffffffffffffffff021916908373ffffffffffffffffffffffffffffffffffffffff1602179055508173ffffffffffffffffffffffffffffffffffffffff168173ffffffffffffffffffffffffffffffffffffffff167f8be0079c531659141344cd1fd0a4f28419497f9722a3daafe3b4186f6b6457e060405160405180910390a35050565b600080fd5b600073ffffffffffffffffffffffffffffffffffffffff82169050919050565b60006200020a82620001dd565b9050919050565b6200021c81620001fd565b81146200022857600080fd5b50565b6000815190506200023c8162000211565b92915050565b6000602082840312156200025b576200025a620001d8565b5b60006200026b848285016200022b565b91505092915050565b6200027f81620001fd565b82525050565b60006020820190506200029c600083018462000274565b92915050565b612a3f80620002b26000396000f3fe608060405234801561001057600080fd5b50600436106101a95760003560e01c80636e42176c116100f9578063a47a618711610097578063bb91f47c11610071578063bb91f47c146104e0578063d5a3b54c14610510578063f2fde38b1461052c578063fdad031914610548576101a9565b8063a47a618714610478578063af49318b146104a8578063b2af00b4146104c4576101a9565b80638da5cb5b116100d35780638da5cb5b146103de57806390103cf0146103fc578063943df19d1461042c5780639531db111461045c576101a9565b80636e42176c14610374578063715018a6146103a45780637aea4f70146103ae576101a9565b80633013ce291161016657806340a233a61161014057806340a233a6146102ec5780634630aa181461030a5780636298eb5c1461033a5780636a326ab114610358576101a9565b80633013ce291461026e57806338d836c21461028c5780633bbc4d34146102bc576101a9565b806307d4cfda146101ae5780630b5cec95146101ca5780632081f4c8146101e6578063243a16fc146102165780632f310bad146102325780632ffdb34214610250575b600080fd5b6101c860048036038101906101c39190611de2565b610578565b005b6101e460048036038101906101df9190611e51565b610588565b005b61020060048036038101906101fb9190611e7e565b61059c565b60405161020d9190611f22565b60405180910390f35b610230600480360381019061022b9190611f3d565b6105c5565b005b61023a610736565b6040516102479190611f8c565b60405180910390f35b61025861075c565b6040516102659190611fc0565b60405180910390f35b610276610762565b6040516102839190611f8c565b60405180910390f35b6102a660048036038101906102a19190611e7e565b61078c565b6040516102b39190611f8c565b60405180910390f35b6102d660048036038101906102d19190611e7e565b6107c9565b6040516102e39190611fc0565b60405180910390f35b6102f46107e6565b6040516103019190611fc0565b60405180910390f35b610324600480360381019061031f9190611e7e565b6107ec565b6040516103319190612023565b60405180910390f35b610342610816565b60405161034f9190611fc0565b60405180910390f35b610372600480360381019061036d9190611e51565b61081c565b005b61038e600480360381019061038991906120df565b610830565b60405161039b9190612137565b60405180910390f35b6103ac610841565b005b6103c860048036038101906103c39190611e7e565b610855565b6040516103d5919061216d565b60405180910390f35b6103e66108a5565b6040516103f39190611f8c565b60405180910390f35b610416600480360381019061041191906121b4565b6108cf565b6040516104239190612137565b60405180910390f35b61044660048036038101906104419190611e7e565b61093f565b604051610453919061216d565b60405180910390f35b61047660048036038101906104719190612237565b610990565b005b610492600480360381019061048d9190611e7e565b6109a4565b60405161049f9190612137565b60405180910390f35b6104c260048036038101906104bd9190612289565b6109c1565b005b6104de60048036038101906104d99190612237565b610aa4565b005b6104fa60048036038101906104f59190611e7e565b610ab8565b604051610507919061216d565b60405180910390f35b61052a600480360381019061052591906122dc565b610ae2565b005b61054660048036038101906105419190611e51565b610bd0565b005b610562600480360381019061055d9190611e7e565b610c56565b60405161056f9190611f8c565b60405180910390f35b610583838383610c93565b505050565b610590610dd3565b61059981610e5a565b50565b600080600083815260200190815260200160002060009054906101000a900460ff169050919050565b81336001600083815260200190815260200160002060009054906101000a900473ffffffffffffffffffffffffffffffffffffffff1673ffffffffffffffffffffffffffffffffffffffff168173ffffffffffffffffffffffffffffffffffffffff1614610668576040517f08c379a000000000000000000000000000000000000000000000000000000000815260040161065f9061238c565b60405180910390fd5b61067184610855565b6106b0576040517f08c379a00000000000000000000000000000000000000000000000000000000081526004016106a7906123f8565b60405180910390fd5b600660008086815260200190815260200160002060006101000a81548160ff021916908360068111156106e6576106e5611eab565b5b021790555082843373ffffffffffffffffffffffffffffffffffffffff167f9c3956aca445d24a9b0e4e1052853a72f08f40e391c6e5cf444f2ab3be9c784660405160405180910390a450505050565b600b60009054906101000a900473ffffffffffffffffffffffffffffffffffffffff1681565b60085481565b6000600360009054906101000a900473ffffffffffffffffffffffffffffffffffffffff16905090565b60006001600083815260200190815260200160002060009054906101000a900473ffffffffffffffffffffffffffffffffffffffff169050919050565b600060046000838152602001908152602001600020549050919050565b600a5481565b60006005600083815260200190815260200160002060009054906101000a900460ff169050919050565b60095481565b610824610dd3565b61082d81610f46565b50565b600081805190602001209050919050565b610849610dd3565b6108536000611055565b565b600080600681111561086a57610869611eab565b5b60008084815260200190815260200160002060009054906101000a900460ff16600681111561089c5761089b611eab565b5b14159050919050565b6000600d60009054906101000a900473ffffffffffffffffffffffffffffffffffffffff16905090565b60006108da85610ab8565b610919576040517f08c379a000000000000000000000000000000000000000000000000000000000815260040161091090612464565b60405180910390fd5b600061092686868561111b565b9050610933818587611263565b80915050949350505050565b60006003600681111561095557610954611eab565b5b60008084815260200190815260200160002060009054906101000a900460ff16600681111561098757610986611eab565b5b14159050919050565b610998610dd3565b6109a181611486565b50565b600060026000838152602001908152602001600020549050919050565b33828173ffffffffffffffffffffffffffffffffffffffff166109e382610c56565b73ffffffffffffffffffffffffffffffffffffffff1614610a39576040517f08c379a0000000000000000000000000000000000000000000000000000000008152600401610a30906124d0565b60405180910390fd5b848460026000838152602001908152602001600020548114610a90576040517f08c379a0000000000000000000000000000000000000000000000000000000008152600401610a879061253c565b60405180910390fd5b610a9b8787876114d3565b50505050505050565b610aac610dd3565b610ab58161156b565b50565b60006007600083815260200190815260200160002060009054906101000a900460ff169050919050565b33828173ffffffffffffffffffffffffffffffffffffffff16610b0482610c56565b73ffffffffffffffffffffffffffffffffffffffff1614610b5a576040517f08c379a0000000000000000000000000000000000000000000000000000000008152600401610b51906124d0565b60405180910390fd5b848460026000838152602001908152602001600020548114610bb1576040517f08c379a0000000000000000000000000000000000000000000000000000000008152600401610ba89061253c565b60405180910390fd5b610bbd878760036114d3565b610bc78786611580565b50505050505050565b610bd8610dd3565b600073ffffffffffffffffffffffffffffffffffffffff168173ffffffffffffffffffffffffffffffffffffffff1603610c4a5760006040517f1e4fbdf7000000000000000000000000000000000000000000000000000000008152600401610c419190611f8c565b60405180910390fd5b610c5381611055565b50565b60006006600083815260200190815260200160002060009054906101000a900473ffffffffffffffffffffffffffffffffffffffff169050919050565b3073ffffffffffffffffffffffffffffffffffffffff168273ffffffffffffffffffffffffffffffffffffffff1603610d01576040517f08c379a0000000000000000000000000000000000000000000000000000000008152600401610cf8906125a8565b60405180910390fd5b60016007600085815260200190815260200160002060006101000a81548160ff021916908315150217905550816006600085815260200190815260200160002060006101000a81548173ffffffffffffffffffffffffffffffffffffffff021916908373ffffffffffffffffffffffffffffffffffffffff160217905550828273ffffffffffffffffffffffffffffffffffffffff167f7442b3c760b38d33876a54d8b8e41b062a93c35bf8ed7b7d74e5fe2b307e8bd683604051610dc69190612636565b60405180910390a3505050565b610ddb611713565b73ffffffffffffffffffffffffffffffffffffffff16610df96108a5565b73ffffffffffffffffffffffffffffffffffffffff1614610e5857610e1c611713565b6040517f118cdaa7000000000000000000000000000000000000000000000000000000008152600401610e4f9190611f8c565b60405180910390fd5b565b600073ffffffffffffffffffffffffffffffffffffffff168173ffffffffffffffffffffffffffffffffffffffff1614158015610ec357503073ffffffffffffffffffffffffffffffffffffffff168173ffffffffffffffffffffffffffffffffffffffff1614155b610f02576040517f08c379a0000000000000000000000000000000000000000000000000000000008152600401610ef9906126a4565b60405180910390fd5b80600b60006101000a81548173ffffffffffffffffffffffffffffffffffffffff021916908373ffffffffffffffffffffffffffffffffffffffff16021790555050565b600073ffffffffffffffffffffffffffffffffffffffff168173ffffffffffffffffffffffffffffffffffffffff1603610fac576040517fd92e233d00000000000000000000000000000000000000000000000000000000815260040160405180910390fd5b3073ffffffffffffffffffffffffffffffffffffffff168173ffffffffffffffffffffffffffffffffffffffff1603611011576040517fe6c4247b00000000000000000000000000000000000000000000000000000000815260040160405180910390fd5b80600360006101000a81548173ffffffffffffffffffffffffffffffffffffffff021916908373ffffffffffffffffffffffffffffffffffffffff16021790555050565b6000600d60009054906101000a900473ffffffffffffffffffffffffffffffffffffffff16905081600d60006101000a81548173ffffffffffffffffffffffffffffffffffffffff021916908373ffffffffffffffffffffffffffffffffffffffff1602179055508173ffffffffffffffffffffffffffffffffffffffff168173ffffffffffffffffffffffffffffffffffffffff167f8be0079c531659141344cd1fd0a4f28419497f9722a3daafe3b4186f6b6457e060405160405180910390a35050565b60003073ffffffffffffffffffffffffffffffffffffffff168373ffffffffffffffffffffffffffffffffffffffff160361115557600080fd5b6000611161858461171b565b9050600160008083815260200190815260200160002060006101000a81548160ff0219169083600681111561119957611198611eab565b5b0217905550836001600083815260200190815260200160002060006101000a81548173ffffffffffffffffffffffffffffffffffffffff021916908373ffffffffffffffffffffffffffffffffffffffff16021790555084600260008381526020019081526020016000208190555084818573ffffffffffffffffffffffffffffffffffffffff167f7dcf34a6c01dbc4ca140535db5a9c4097e978278988ce11077dfd823c4ecb87c866040516112509190612636565b60405180910390a4809150509392505050565b82600080600681111561127957611278611eab565b5b6005600084815260200190815260200160002060009054906101000a900460ff1660068111156112ac576112ab611eab565b5b146112ec576040517f08c379a00000000000000000000000000000000000000000000000000000000081526004016112e390612710565b60405180910390fd5b6001841015611327576040517f1f2a200500000000000000000000000000000000000000000000000000000000815260040160405180910390fd5b3073ffffffffffffffffffffffffffffffffffffffff16600360009054906101000a900473ffffffffffffffffffffffffffffffffffffffff1673ffffffffffffffffffffffffffffffffffffffff16036113ae576040517fe6c4247b00000000000000000000000000000000000000000000000000000000815260040160405180910390fd5b6113dc600360009054906101000a900473ffffffffffffffffffffffffffffffffffffffff1684308761174e565b83600460008781526020019081526020016000208190555060016005600087815260200190815260200160002060006101000a81548160ff0219169083600681111561142b5761142a611eab565b5b02179055508273ffffffffffffffffffffffffffffffffffffffff16857fa7349eaff0f04bf9c69fe64b5e86e41ee267852570ae1acdae697c6653e95a02866040516114779190611fc0565b60405180910390a35050505050565b600081116114c9576040517f08c379a00000000000000000000000000000000000000000000000000000000081526004016114c09061277c565b60405180910390fd5b8060098190555050565b82826002600083815260200190815260200160002054811461152a576040517f08c379a00000000000000000000000000000000000000000000000000000000081526004016115219061253c565b60405180910390fd5b8260008087815260200190815260200160002060006101000a81548160ff0219169083600681111561155f5761155e611eab565b5b02179055505050505050565b804261157791906127cb565b600a8190555050565b81600180600681111561159657611595611eab565b5b6005600084815260200190815260200160002060009054906101000a900460ff1660068111156115c9576115c8611eab565b5b14611609576040517f08c379a000000000000000000000000000000000000000000000000000000000815260040161160090612710565b60405180910390fd5b8260046000868152602001908152602001600020541015611656576040517f5945ea5600000000000000000000000000000000000000000000000000000000815260040160405180910390fd5b600580600086815260200190815260200160002060006101000a81548160ff0219169083600681111561168c5761168b611eab565b5b02179055506116be600360009054906101000a900473ffffffffffffffffffffffffffffffffffffffff1633856117d0565b3373ffffffffffffffffffffffffffffffffffffffff16847f45652f5704babe8631839774cd638452bb18d9995de3dc566141b5bbdce42f45856040516117059190611fc0565b60405180910390a350505050565b600033905090565b6000818360405160200161173092919061285c565b60405160208183030381529060405280519060200120905092915050565b6117ca848573ffffffffffffffffffffffffffffffffffffffff166323b872dd86868660405160240161178393929190612884565b604051602081830303815290604052915060e01b6020820180517bffffffffffffffffffffffffffffffffffffffffffffffffffffffff83818316178352505050506118df565b50505050565b60008373ffffffffffffffffffffffffffffffffffffffff1663095ea7b384846040516024016118019291906128bb565b604051602081830303815290604052915060e01b6020820180517bffffffffffffffffffffffffffffffffffffffffffffffffffffffff8381831617835250505050905061184f8482611976565b6118d9576118ce848573ffffffffffffffffffffffffffffffffffffffff1663095ea7b3866000604051602401611887929190612929565b604051602081830303815290604052915060e01b6020820180517bffffffffffffffffffffffffffffffffffffffffffffffffffffffff83818316178352505050506118df565b6118d884826118df565b5b50505050565b600061190a828473ffffffffffffffffffffffffffffffffffffffff16611a3d90919063ffffffff16565b9050600081511415801561192f57508080602001905181019061192d919061297e565b155b1561197157826040517f5274afe70000000000000000000000000000000000000000000000000000000081526004016119689190611f8c565b60405180910390fd5b505050565b60008060008473ffffffffffffffffffffffffffffffffffffffff16846040516119a091906129f2565b6000604051808303816000865af19150503d80600081146119dd576040519150601f19603f3d011682016040523d82523d6000602084013e6119e2565b606091505b5091509150818015611a105750600081511480611a0f575080806020019051810190611a0e919061297e565b5b5b8015611a33575060008573ffffffffffffffffffffffffffffffffffffffff163b115b9250505092915050565b6060611a4b83836000611a53565b905092915050565b606081471015611a9a57306040517fcd786059000000000000000000000000000000000000000000000000000000008152600401611a919190611f8c565b60405180910390fd5b6000808573ffffffffffffffffffffffffffffffffffffffff168486604051611ac391906129f2565b60006040518083038185875af1925050503d8060008114611b00576040519150601f19603f3d011682016040523d82523d6000602084013e611b05565b606091505b5091509150611b15868383611b20565b925050509392505050565b606082611b3557611b3082611baf565b611ba7565b60008251148015611b5d575060008473ffffffffffffffffffffffffffffffffffffffff163b145b15611b9f57836040517f9996b315000000000000000000000000000000000000000000000000000000008152600401611b969190611f8c565b60405180910390fd5b819050611ba8565b5b9392505050565b600081511115611bc25780518082602001fd5b6040517f1425ea4200000000000000000000000000000000000000000000000000000000815260040160405180910390fd5b6000604051905090565b600080fd5b600080fd5b6000819050919050565b611c1b81611c08565b8114611c2657600080fd5b50565b600081359050611c3881611c12565b92915050565b600073ffffffffffffffffffffffffffffffffffffffff82169050919050565b6000611c6982611c3e565b9050919050565b611c7981611c5e565b8114611c8457600080fd5b50565b600081359050611c9681611c70565b92915050565b600080fd5b600080fd5b6000601f19601f8301169050919050565b7f4e487b7100000000000000000000000000000000000000000000000000000000600052604160045260246000fd5b611cef82611ca6565b810181811067ffffffffffffffff82111715611d0e57611d0d611cb7565b5b80604052505050565b6000611d21611bf4565b9050611d2d8282611ce6565b919050565b600067ffffffffffffffff821115611d4d57611d4c611cb7565b5b611d5682611ca6565b9050602081019050919050565b82818337600083830152505050565b6000611d85611d8084611d32565b611d17565b905082815260208101848484011115611da157611da0611ca1565b5b611dac848285611d63565b509392505050565b600082601f830112611dc957611dc8611c9c565b5b8135611dd9848260208601611d72565b91505092915050565b600080600060608486031215611dfb57611dfa611bfe565b5b6000611e0986828701611c29565b9350506020611e1a86828701611c87565b925050604084013567ffffffffffffffff811115611e3b57611e3a611c03565b5b611e4786828701611db4565b9150509250925092565b600060208284031215611e6757611e66611bfe565b5b6000611e7584828501611c87565b91505092915050565b600060208284031215611e9457611e93611bfe565b5b6000611ea284828501611c29565b91505092915050565b7f4e487b7100000000000000000000000000000000000000000000000000000000600052602160045260246000fd5b60078110611eeb57611eea611eab565b5b50565b6000819050611efc82611eda565b919050565b6000611f0c82611eee565b9050919050565b611f1c81611f01565b82525050565b6000602082019050611f376000830184611f13565b92915050565b60008060408385031215611f5457611f53611bfe565b5b6000611f6285828601611c29565b9250506020611f7385828601611c29565b9150509250929050565b611f8681611c5e565b82525050565b6000602082019050611fa16000830184611f7d565b92915050565b6000819050919050565b611fba81611fa7565b82525050565b6000602082019050611fd56000830184611fb1565b92915050565b60078110611fec57611feb611eab565b5b50565b6000819050611ffd82611fdb565b919050565b600061200d82611fef565b9050919050565b61201d81612002565b82525050565b60006020820190506120386000830184612014565b92915050565b600067ffffffffffffffff82111561205957612058611cb7565b5b61206282611ca6565b9050602081019050919050565b600061208261207d8461203e565b611d17565b90508281526020810184848401111561209e5761209d611ca1565b5b6120a9848285611d63565b509392505050565b600082601f8301126120c6576120c5611c9c565b5b81356120d684826020860161206f565b91505092915050565b6000602082840312156120f5576120f4611bfe565b5b600082013567ffffffffffffffff81111561211357612112611c03565b5b61211f848285016120b1565b91505092915050565b61213181611c08565b82525050565b600060208201905061214c6000830184612128565b92915050565b60008115159050919050565b61216781612152565b82525050565b6000602082019050612182600083018461215e565b92915050565b61219181611fa7565b811461219c57600080fd5b50565b6000813590506121ae81612188565b92915050565b600080600080608085870312156121ce576121cd611bfe565b5b60006121dc87828801611c29565b94505060206121ed87828801611c87565b93505060406121fe8782880161219f565b925050606085013567ffffffffffffffff81111561221f5761221e611c03565b5b61222b87828801611db4565b91505092959194509250565b60006020828403121561224d5761224c611bfe565b5b600061225b8482850161219f565b91505092915050565b6007811061227157600080fd5b50565b60008135905061228381612264565b92915050565b6000806000606084860312156122a2576122a1611bfe565b5b60006122b086828701611c29565b93505060206122c186828701611c29565b92505060406122d286828701612274565b9150509250925092565b6000806000606084860312156122f5576122f4611bfe565b5b600061230386828701611c29565b935050602061231486828701611c29565b92505060406123258682870161219f565b9150509250925092565b600082825260208201905092915050565b7f4e6f74207072696e74206f776e65720000000000000000000000000000000000600082015250565b6000612376600f8361232f565b915061238182612340565b602082019050919050565b600060208201905081810360008301526123a581612369565b9050919050565b7f496e76616c6964207072696e7420686173680000000000000000000000000000600082015250565b60006123e260128361232f565b91506123ed826123ac565b602082019050919050565b60006020820190508181036000830152612411816123d5565b9050919050565b7f496e76616c6964207072696e7465720000000000000000000000000000000000600082015250565b600061244e600f8361232f565b915061245982612418565b602082019050919050565b6000602082019050818103600083015261247d81612441565b9050919050565b7f4f6e6c79207072696e746572206f776e65720000000000000000000000000000600082015250565b60006124ba60128361232f565b91506124c582612484565b602082019050919050565b600060208201905081810360008301526124e9816124ad565b9050919050565b7f4e6f74207072696e746572206f776e6572000000000000000000000000000000600082015250565b600061252660118361232f565b9150612531826124f0565b602082019050919050565b6000602082019050818103600083015261255581612519565b9050919050565b7f496e76616c6964206f776e657200000000000000000000000000000000000000600082015250565b6000612592600d8361232f565b915061259d8261255c565b602082019050919050565b600060208201905081810360008301526125c181612585565b9050919050565b600081519050919050565b60005b838110156125f15780820151818401526020810190506125d6565b60008484015250505050565b6000612608826125c8565b612612818561232f565b93506126228185602086016125d3565b61262b81611ca6565b840191505092915050565b6000602082019050818103600083015261265081846125fd565b905092915050565b7f496e76616c69642072656465656d206164647265737300000000000000000000600082015250565b600061268e60168361232f565b915061269982612658565b602082019050919050565b600060208201905081810360008301526126bd81612681565b9050919050565b7f496e76616c6964207061796d656e7420616374696f6e00000000000000000000600082015250565b60006126fa60168361232f565b9150612705826126c4565b602082019050919050565b60006020820190508181036000830152612729816126ed565b9050919050565b7f56616c7565206d7573742062652067726561746572207468616e207a65726f00600082015250565b6000612766601f8361232f565b915061277182612730565b602082019050919050565b6000602082019050818103600083015261279581612759565b9050919050565b7f4e487b7100000000000000000000000000000000000000000000000000000000600052601160045260246000fd5b60006127d682611fa7565b91506127e183611fa7565b92508282019050808211156127f9576127f861279c565b5b92915050565b600081905092915050565b6000612815826125c8565b61281f81856127ff565b935061282f8185602086016125d3565b80840191505092915050565b6000819050919050565b61285661285182611c08565b61283b565b82525050565b6000612868828561280a565b91506128748284612845565b6020820191508190509392505050565b60006060820190506128996000830186611f7d565b6128a66020830185611f7d565b6128b36040830184611fb1565b949350505050565b60006040820190506128d06000830185611f7d565b6128dd6020830184611fb1565b9392505050565b6000819050919050565b6000819050919050565b600061291361290e612909846128e4565b6128ee565b611fa7565b9050919050565b612923816128f8565b82525050565b600060408201905061293e6000830185611f7d565b61294b602083018461291a565b9392505050565b61295b81612152565b811461296657600080fd5b50565b60008151905061297881612952565b92915050565b60006020828403121561299457612993611bfe565b5b60006129a284828501612969565b91505092915050565b600081519050919050565b600081905092915050565b60006129cc826129ab565b6129d681856129b6565b93506129e68185602086016125d3565b80840191505092915050565b60006129fe82846129c1565b91508190509291505056fea2646970667358221220a73c891a8676affcdef70d6e24e0df1440a24c2088ac2a816085f7e572f31cb364736f6c63430008140033",
  "linkReferences": {},
  "deployedLinkReferences": {}
}